{
  "contractName": "ICO",
  "abi": [
    {
      "inputs": [
        {
          "internalType": "address payable",
          "name": "_depositETHAddress",
          "type": "address"
        }
      ],
      "stateMutability": "nonpayable",
      "type": "constructor"
    },
    {
      "anonymous": false,
      "inputs": [
        {
          "indexed": true,
          "internalType": "address",
          "name": "owner",
          "type": "address"
        },
        {
          "indexed": true,
          "internalType": "address",
          "name": "spender",
          "type": "address"
        },
        {
          "indexed": false,
          "internalType": "uint256",
          "name": "tokens",
          "type": "uint256"
        }
      ],
      "name": "Approval",
      "type": "event"
    },
    {
      "anonymous": false,
      "inputs": [
        {
          "indexed": true,
          "internalType": "address",
          "name": "oldOwner",
          "type": "address"
        },
        {
          "indexed": true,
          "internalType": "address",
          "name": "newOwner",
          "type": "address"
        }
      ],
      "name": "NewOwner",
      "type": "event"
    },
    {
      "anonymous": false,
      "inputs": [
        {
          "indexed": false,
          "internalType": "address",
          "name": "_address",
          "type": "address"
        }
      ],
      "name": "State",
      "type": "event"
    },
    {
      "anonymous": false,
      "inputs": [
        {
          "indexed": true,
          "internalType": "address",
          "name": "from",
          "type": "address"
        },
        {
          "indexed": true,
          "internalType": "address",
          "name": "to",
          "type": "address"
        },
        {
          "indexed": false,
          "internalType": "uint256",
          "name": "tokens",
          "type": "uint256"
        }
      ],
      "name": "Transfer",
      "type": "event"
    },
    {
      "stateMutability": "payable",
      "type": "fallback"
    },
    {
      "inputs": [
        {
          "internalType": "address",
          "name": "_owner",
          "type": "address"
        },
        {
          "internalType": "address",
          "name": "_spender",
          "type": "address"
        }
      ],
      "name": "allowance",
      "outputs": [
        {
          "internalType": "uint256",
          "name": "",
          "type": "uint256"
        }
      ],
      "stateMutability": "view",
      "type": "function"
    },
    {
      "inputs": [
        {
          "internalType": "address",
          "name": "_spender",
          "type": "address"
        },
        {
          "internalType": "uint256",
          "name": "_tokens",
          "type": "uint256"
        }
      ],
      "name": "approve",
      "outputs": [
        {
          "internalType": "bool",
          "name": "",
          "type": "bool"
        }
      ],
      "stateMutability": "nonpayable",
      "type": "function"
    },
    {
      "inputs": [
        {
          "internalType": "address",
          "name": "_account",
          "type": "address"
        }
      ],
      "name": "balanceOf",
      "outputs": [
        {
          "internalType": "uint256",
          "name": "",
          "type": "uint256"
        }
      ],
      "stateMutability": "view",
      "type": "function"
    },
    {
      "inputs": [],
      "name": "decimals",
      "outputs": [
        {
          "internalType": "uint8",
          "name": "",
          "type": "uint8"
        }
      ],
      "stateMutability": "pure",
      "type": "function"
    },
    {
      "inputs": [],
      "name": "depositETHAddress",
      "outputs": [
        {
          "internalType": "address payable",
          "name": "",
          "type": "address"
        }
      ],
      "stateMutability": "view",
      "type": "function"
    },
    {
      "inputs": [
        {
          "internalType": "address",
          "name": "",
          "type": "address"
        }
      ],
      "name": "investors",
      "outputs": [
        {
          "internalType": "bool",
          "name": "",
          "type": "bool"
        }
      ],
      "stateMutability": "view",
      "type": "function"
    },
    {
      "inputs": [],
      "name": "name",
      "outputs": [
        {
          "internalType": "string",
          "name": "",
          "type": "string"
        }
      ],
      "stateMutability": "view",
      "type": "function"
    },
    {
      "inputs": [],
      "name": "raisedAmount",
      "outputs": [
        {
          "internalType": "uint256",
          "name": "",
          "type": "uint256"
        }
      ],
      "stateMutability": "view",
      "type": "function"
    },
    {
      "inputs": [],
      "name": "rateOfChange",
      "outputs": [
        {
          "internalType": "uint256",
          "name": "",
          "type": "uint256"
        }
      ],
      "stateMutability": "view",
      "type": "function"
    },
    {
      "inputs": [],
      "name": "renounceOwnership",
      "outputs": [],
      "stateMutability": "nonpayable",
      "type": "function"
    },
    {
      "inputs": [],
      "name": "symbol",
      "outputs": [
        {
          "internalType": "string",
          "name": "",
          "type": "string"
        }
      ],
      "stateMutability": "view",
      "type": "function"
    },
    {
      "inputs": [],
      "name": "totalSupply",
      "outputs": [
        {
          "internalType": "uint256",
          "name": "",
          "type": "uint256"
        }
      ],
      "stateMutability": "view",
      "type": "function"
    },
    {
      "inputs": [
        {
          "internalType": "address",
          "name": "_to",
          "type": "address"
        },
        {
          "internalType": "uint256",
          "name": "_tokens",
          "type": "uint256"
        }
      ],
      "name": "transfer",
      "outputs": [
        {
          "internalType": "bool",
          "name": "",
          "type": "bool"
        }
      ],
      "stateMutability": "nonpayable",
      "type": "function"
    },
    {
      "inputs": [
        {
          "internalType": "address",
          "name": "_from",
          "type": "address"
        },
        {
          "internalType": "address",
          "name": "_to",
          "type": "address"
        },
        {
          "internalType": "uint256",
          "name": "_tokens",
          "type": "uint256"
        }
      ],
      "name": "transferFrom",
      "outputs": [
        {
          "internalType": "bool",
          "name": "",
          "type": "bool"
        }
      ],
      "stateMutability": "nonpayable",
      "type": "function"
    },
    {
      "inputs": [
        {
          "internalType": "address",
          "name": "_newOwner",
          "type": "address"
        }
      ],
      "name": "transferOwnership",
      "outputs": [],
      "stateMutability": "nonpayable",
      "type": "function"
    },
    {
      "stateMutability": "payable",
      "type": "receive"
    },
    {
      "inputs": [],
      "name": "buyToken",
      "outputs": [],
      "stateMutability": "payable",
      "type": "function"
    },
    {
      "inputs": [],
      "name": "getListOfUsers",
      "outputs": [
        {
          "internalType": "address[]",
          "name": "",
          "type": "address[]"
        }
      ],
      "stateMutability": "view",
      "type": "function"
    },
    {
      "inputs": [],
      "name": "getOwnerAddress",
      "outputs": [
        {
          "internalType": "address",
          "name": "",
          "type": "address"
        }
      ],
      "stateMutability": "view",
      "type": "function"
    }
  ],
  "bytecode": "0x608060405233600560006101000a81548173ffffffffffffffffffffffffffffffffffffffff021916908373ffffffffffffffffffffffffffffffffffffffff1602179055506969e10de76676d08000006006556103e86007553480156200006657600080fd5b50604051620025933803806200259383398181016040528101906200008c919062000443565b6040518060400160405280601381526020017f5261726520506c6174666f726d20546f6b656e000000000000000000000000008152506040518060400160405280600381526020017f52505400000000000000000000000000000000000000000000000000000000008152508160039080519060200190620001109291906200037c565b508060049080519060200190620001299291906200037c565b50505080600c60006101000a81548173ffffffffffffffffffffffffffffffffffffffff021916908373ffffffffffffffffffffffffffffffffffffffff1602179055506200018133600654620001a560201b60201c565b662386f26fc10000600981905550678ac7230489e80000600a8190555050620006a3565b600073ffffffffffffffffffffffffffffffffffffffff168273ffffffffffffffffffffffffffffffffffffffff16141562000218576040517f08c379a00000000000000000000000000000000000000000000000000000000081526004016200020f90620004ad565b60405180910390fd5b6200022c600083836200034660201b60201c565b62000240600254826200034b60201b60201c565b600281905550620002986000808473ffffffffffffffffffffffffffffffffffffffff1673ffffffffffffffffffffffffffffffffffffffff168152602001908152602001600020546002546200034b60201b60201c565b6000808473ffffffffffffffffffffffffffffffffffffffff1673ffffffffffffffffffffffffffffffffffffffff168152602001908152602001600020819055508173ffffffffffffffffffffffffffffffffffffffff16600073ffffffffffffffffffffffffffffffffffffffff167fddf252ad1be2c89b69c2b068fc378daa952ba7f163c4a11628f55a4df523b3ef836040516200033a9190620004cf565b60405180910390a35050565b505050565b60008082846200035c9190620004fd565b905083811015620003725762000371620005ce565b5b8091505092915050565b8280546200038a9062000598565b90600052602060002090601f016020900481019282620003ae5760008555620003fa565b82601f10620003c957805160ff1916838001178555620003fa565b82800160010185558215620003fa579182015b82811115620003f9578251825591602001919060010190620003dc565b5b5090506200040991906200040d565b5090565b5b80821115620004285760008160009055506001016200040e565b5090565b6000815190506200043d8162000689565b92915050565b6000602082840312156200045c576200045b6200065b565b5b60006200046c848285016200042c565b91505092915050565b600062000484601f83620004ec565b9150620004918262000660565b602082019050919050565b620004a7816200058e565b82525050565b60006020820190508181036000830152620004c88162000475565b9050919050565b6000602082019050620004e660008301846200049c565b92915050565b600082825260208201905092915050565b60006200050a826200058e565b915062000517836200058e565b9250827fffffffffffffffffffffffffffffffffffffffffffffffffffffffffffffffff038211156200054f576200054e620005fd565b5b828201905092915050565b600062000567826200056e565b9050919050565b600073ffffffffffffffffffffffffffffffffffffffff82169050919050565b6000819050919050565b60006002820490506001821680620005b157607f821691505b60208210811415620005c857620005c76200062c565b5b50919050565b7f4e487b7100000000000000000000000000000000000000000000000000000000600052600160045260246000fd5b7f4e487b7100000000000000000000000000000000000000000000000000000000600052601160045260246000fd5b7f4e487b7100000000000000000000000000000000000000000000000000000000600052602260045260246000fd5b600080fd5b7f45524332303a206d696e7420746f20746865207a65726f206164647265737300600082015250565b62000694816200055a565b8114620006a057600080fd5b50565b611ee080620006b36000396000f3fe60806040526004361061010d5760003560e01c806370a0823111610095578063a482171911610064578063a4821719146103b8578063a9059cbb146103c2578063c59ee1dc146103ff578063dd62ed3e1461042a578063f2fde38b146104675761014b565b806370a082311461030e578063715018a61461034b57806376ce574b1461036257806395d89b411461038d5761014b565b806323b872dd116100dc57806323b872dd14610213578063313ce5671461025057806337b526671461027b5780636b0a26d2146102a65780636f7bc9be146102d15761014b565b806306fdde0314610155578063095ea7b3146101805780630c4f65bd146101bd57806318160ddd146101e85761014b565b3661014b577f950567f94688704edec9b1229bc9aad0452c63356d16cc35c3f9c9648fb43ec63360405161014191906116dc565b60405180910390a1005b610153610490565b005b34801561016157600080fd5b5061016a6107da565b604051610177919061174f565b60405180910390f35b34801561018c57600080fd5b506101a760048036038101906101a29190611412565b610868565b6040516101b49190611734565b60405180910390f35b3480156101c957600080fd5b506101d2610a39565b6040516101df91906116dc565b60405180910390f35b3480156101f457600080fd5b506101fd610a63565b60405161020a91906118d1565b60405180910390f35b34801561021f57600080fd5b5061023a600480360381019061023591906113bf565b610a6d565b6040516102479190611734565b60405180910390f35b34801561025c57600080fd5b50610265610b13565b60405161027291906118ec565b60405180910390f35b34801561028757600080fd5b50610290610b1c565b60405161029d9190611712565b60405180910390f35b3480156102b257600080fd5b506102bb610baa565b6040516102c891906118d1565b60405180910390f35b3480156102dd57600080fd5b506102f860048036038101906102f39190611352565b610bb0565b6040516103059190611734565b60405180910390f35b34801561031a57600080fd5b5061033560048036038101906103309190611352565b610bd0565b60405161034291906118d1565b60405180910390f35b34801561035757600080fd5b50610360610c18565b005b34801561036e57600080fd5b50610377610d69565b60405161038491906116f7565b60405180910390f35b34801561039957600080fd5b506103a2610d8f565b6040516103af919061174f565b60405180910390f35b6103c0610490565b005b3480156103ce57600080fd5b506103e960048036038101906103e49190611412565b610e1d565b6040516103f69190611734565b60405180910390f35b34801561040b57600080fd5b50610414610e34565b60405161042191906118d1565b60405180910390f35b34801561043657600080fd5b50610451600480360381019061044c919061137f565b610e3a565b60405161045e91906118d1565b60405180910390f35b34801561047357600080fd5b5061048e60048036038101906104899190611352565b610ec1565b005b6000600560009054906101000a900473ffffffffffffffffffffffffffffffffffffffff1690508073ffffffffffffffffffffffffffffffffffffffff163373ffffffffffffffffffffffffffffffffffffffff161415610526576040517f08c379a000000000000000000000000000000000000000000000000000000000815260040161051d90611831565b60405180910390fd5b6000341415801561054d57503373ffffffffffffffffffffffffffffffffffffffff163134105b61058c576040517f08c379a000000000000000000000000000000000000000000000000000000000815260040161058390611811565b60405180910390fd5b6006543460085461059d919061195c565b11156105de576040517f08c379a00000000000000000000000000000000000000000000000000000000081526004016105d5906117d1565b60405180910390fd5b60095434101580156105f25750600a543411155b610631576040517f08c379a000000000000000000000000000000000000000000000000000000000815260040161062890611851565b60405180910390fd5b61063d60085434611081565b600881905550600d60003373ffffffffffffffffffffffffffffffffffffffff1673ffffffffffffffffffffffffffffffffffffffff16815260200190815260200160002060009054906101000a900460ff1661075057600b339080600181540180825580915050600190039060005260206000200160009091909190916101000a81548173ffffffffffffffffffffffffffffffffffffffff021916908373ffffffffffffffffffffffffffffffffffffffff1602179055506001600d60003373ffffffffffffffffffffffffffffffffffffffff1673ffffffffffffffffffffffffffffffffffffffff16815260200190815260200160002060006101000a81548160ff0219169083151502179055505b60006007543461076091906119b2565b9050600c60009054906101000a900473ffffffffffffffffffffffffffffffffffffffff1673ffffffffffffffffffffffffffffffffffffffff166108fc349081150290604051600060405180830381858888f193505050501580156107ca573d6000803e3d6000fd5b506107d68233836110ad565b5050565b600380546107e790611ada565b80601f016020809104026020016040519081016040528092919081815260200182805461081390611ada565b80156108605780601f1061083557610100808354040283529160200191610860565b820191906000526020600020905b81548152906001019060200180831161084357829003601f168201915b505050505081565b60008073ffffffffffffffffffffffffffffffffffffffff163373ffffffffffffffffffffffffffffffffffffffff1614156108d9576040517f08c379a00000000000000000000000000000000000000000000000000000000081526004016108d0906118b1565b60405180910390fd5b600073ffffffffffffffffffffffffffffffffffffffff168373ffffffffffffffffffffffffffffffffffffffff161415610949576040517f08c379a0000000000000000000000000000000000000000000000000000000008152600401610940906117b1565b60405180910390fd5b81600160003373ffffffffffffffffffffffffffffffffffffffff1673ffffffffffffffffffffffffffffffffffffffff16815260200190815260200160002060008573ffffffffffffffffffffffffffffffffffffffff1673ffffffffffffffffffffffffffffffffffffffff168152602001908152602001600020819055508273ffffffffffffffffffffffffffffffffffffffff163373ffffffffffffffffffffffffffffffffffffffff167f8c5be1e5ebec7d5bd14f71427d1e84f3dd0314c0f7b2291e5b200ac8c7c3b92584604051610a2791906118d1565b60405180910390a36001905092915050565b6000600560009054906101000a900473ffffffffffffffffffffffffffffffffffffffff16905090565b6000600254905090565b600080600160008673ffffffffffffffffffffffffffffffffffffffff1673ffffffffffffffffffffffffffffffffffffffff16815260200190815260200160002060003373ffffffffffffffffffffffffffffffffffffffff1673ffffffffffffffffffffffffffffffffffffffff16815260200190815260200160002054905082811015610afc57600080fd5b610b078585856110ad565b60019150509392505050565b60006012905090565b6060600b805480602002602001604051908101604052809291908181526020018280548015610ba057602002820191906000526020600020905b8160009054906101000a900473ffffffffffffffffffffffffffffffffffffffff1673ffffffffffffffffffffffffffffffffffffffff1681526020019060010190808311610b56575b5050505050905090565b60075481565b600d6020528060005260406000206000915054906101000a900460ff1681565b60008060008373ffffffffffffffffffffffffffffffffffffffff1673ffffffffffffffffffffffffffffffffffffffff168152602001908152602001600020549050919050565b600560009054906101000a900473ffffffffffffffffffffffffffffffffffffffff1673ffffffffffffffffffffffffffffffffffffffff163373ffffffffffffffffffffffffffffffffffffffff1614610ca8576040517f08c379a0000000000000000000000000000000000000000000000000000000008152600401610c9f90611891565b60405180910390fd5b600073ffffffffffffffffffffffffffffffffffffffff16600560009054906101000a900473ffffffffffffffffffffffffffffffffffffffff1673ffffffffffffffffffffffffffffffffffffffff167f70aea8d848e8a90fb7661b227dc522eb6395c3dac71b63cb59edd5c9899b236460405160405180910390a36000600560006101000a81548173ffffffffffffffffffffffffffffffffffffffff021916908373ffffffffffffffffffffffffffffffffffffffff160217905550565b600c60009054906101000a900473ffffffffffffffffffffffffffffffffffffffff1681565b60048054610d9c90611ada565b80601f0160208091040260200160405190810160405280929190818152602001828054610dc890611ada565b8015610e155780601f10610dea57610100808354040283529160200191610e15565b820191906000526020600020905b815481529060010190602001808311610df857829003601f168201915b505050505081565b6000610e2a3384846110ad565b6001905092915050565b60085481565b6000600160008473ffffffffffffffffffffffffffffffffffffffff1673ffffffffffffffffffffffffffffffffffffffff16815260200190815260200160002060008373ffffffffffffffffffffffffffffffffffffffff1673ffffffffffffffffffffffffffffffffffffffff16815260200190815260200160002054905092915050565b600560009054906101000a900473ffffffffffffffffffffffffffffffffffffffff1673ffffffffffffffffffffffffffffffffffffffff163373ffffffffffffffffffffffffffffffffffffffff1614610f51576040517f08c379a0000000000000000000000000000000000000000000000000000000008152600401610f4890611891565b60405180910390fd5b600073ffffffffffffffffffffffffffffffffffffffff168173ffffffffffffffffffffffffffffffffffffffff161415610fc1576040517f08c379a0000000000000000000000000000000000000000000000000000000008152600401610fb890611791565b60405180910390fd5b8073ffffffffffffffffffffffffffffffffffffffff16600560009054906101000a900473ffffffffffffffffffffffffffffffffffffffff1673ffffffffffffffffffffffffffffffffffffffff167f70aea8d848e8a90fb7661b227dc522eb6395c3dac71b63cb59edd5c9899b236460405160405180910390a380600560006101000a81548173ffffffffffffffffffffffffffffffffffffffff021916908373ffffffffffffffffffffffffffffffffffffffff16021790555050565b6000808284611090919061195c565b9050838110156110a3576110a2611b0c565b5b8091505092915050565b600073ffffffffffffffffffffffffffffffffffffffff168373ffffffffffffffffffffffffffffffffffffffff16141561111d576040517f08c379a000000000000000000000000000000000000000000000000000000000815260040161111490611871565b60405180910390fd5b600073ffffffffffffffffffffffffffffffffffffffff168273ffffffffffffffffffffffffffffffffffffffff16141561118d576040517f08c379a000000000000000000000000000000000000000000000000000000000815260040161118490611771565b60405180910390fd5b60008060008573ffffffffffffffffffffffffffffffffffffffff1673ffffffffffffffffffffffffffffffffffffffff16815260200190815260200160002054905081811015611213576040517f08c379a000000000000000000000000000000000000000000000000000000000815260040161120a906117f1565b60405180910390fd5b816000808673ffffffffffffffffffffffffffffffffffffffff1673ffffffffffffffffffffffffffffffffffffffff16815260200190815260200160002060008282546112619190611a0c565b92505081905550816000808573ffffffffffffffffffffffffffffffffffffffff1673ffffffffffffffffffffffffffffffffffffffff16815260200190815260200160002060008282546112b6919061195c565b925050819055508273ffffffffffffffffffffffffffffffffffffffff168473ffffffffffffffffffffffffffffffffffffffff167fddf252ad1be2c89b69c2b068fc378daa952ba7f163c4a11628f55a4df523b3ef8460405161131a91906118d1565b60405180910390a350505050565b60008135905061133781611e7c565b92915050565b60008135905061134c81611e93565b92915050565b60006020828403121561136857611367611b99565b5b600061137684828501611328565b91505092915050565b6000806040838503121561139657611395611b99565b5b60006113a485828601611328565b92505060206113b585828601611328565b9150509250929050565b6000806000606084860312156113d8576113d7611b99565b5b60006113e686828701611328565b93505060206113f786828701611328565b92505060406114088682870161133d565b9150509250925092565b6000806040838503121561142957611428611b99565b5b600061143785828601611328565b92505060206114488582860161133d565b9150509250929050565b600061145e8383611479565b60208301905092915050565b61147381611a52565b82525050565b61148281611a40565b82525050565b61149181611a40565b82525050565b60006114a282611917565b6114ac818561193a565b93506114b783611907565b8060005b838110156114e85781516114cf8882611452565b97506114da8361192d565b9250506001810190506114bb565b5085935050505092915050565b6114fe81611a64565b82525050565b600061150f82611922565b611519818561194b565b9350611529818560208601611aa7565b61153281611b9e565b840191505092915050565b600061154a60238361194b565b915061155582611baf565b604082019050919050565b600061156d60268361194b565b915061157882611bfe565b604082019050919050565b600061159060228361194b565b915061159b82611c4d565b604082019050919050565b60006115b3600b8361194b565b91506115be82611c9c565b602082019050919050565b60006115d660268361194b565b91506115e182611cc5565b604082019050919050565b60006115f960138361194b565b915061160482611d14565b602082019050919050565b600061161c60248361194b565b915061162782611d3d565b604082019050919050565b600061163f60128361194b565b915061164a82611d8c565b602082019050919050565b600061166260258361194b565b915061166d82611db5565b604082019050919050565b6000611685601e8361194b565b915061169082611e04565b602082019050919050565b60006116a860248361194b565b91506116b382611e2d565b604082019050919050565b6116c781611a90565b82525050565b6116d681611a9a565b82525050565b60006020820190506116f16000830184611488565b92915050565b600060208201905061170c600083018461146a565b92915050565b6000602082019050818103600083015261172c8184611497565b905092915050565b600060208201905061174960008301846114f5565b92915050565b600060208201905081810360008301526117698184611504565b905092915050565b6000602082019050818103600083015261178a8161153d565b9050919050565b600060208201905081810360008301526117aa81611560565b9050919050565b600060208201905081810360008301526117ca81611583565b9050919050565b600060208201905081810360008301526117ea816115a6565b9050919050565b6000602082019050818103600083015261180a816115c9565b9050919050565b6000602082019050818103600083015261182a816115ec565b9050919050565b6000602082019050818103600083015261184a8161160f565b9050919050565b6000602082019050818103600083015261186a81611632565b9050919050565b6000602082019050818103600083015261188a81611655565b9050919050565b600060208201905081810360008301526118aa81611678565b9050919050565b600060208201905081810360008301526118ca8161169b565b9050919050565b60006020820190506118e660008301846116be565b92915050565b600060208201905061190160008301846116cd565b92915050565b6000819050602082019050919050565b600081519050919050565b600081519050919050565b6000602082019050919050565b600082825260208201905092915050565b600082825260208201905092915050565b600061196782611a90565b915061197283611a90565b9250827fffffffffffffffffffffffffffffffffffffffffffffffffffffffffffffffff038211156119a7576119a6611b3b565b5b828201905092915050565b60006119bd82611a90565b91506119c883611a90565b9250817fffffffffffffffffffffffffffffffffffffffffffffffffffffffffffffffff0483118215151615611a0157611a00611b3b565b5b828202905092915050565b6000611a1782611a90565b9150611a2283611a90565b925082821015611a3557611a34611b3b565b5b828203905092915050565b6000611a4b82611a70565b9050919050565b6000611a5d82611a70565b9050919050565b60008115159050919050565b600073ffffffffffffffffffffffffffffffffffffffff82169050919050565b6000819050919050565b600060ff82169050919050565b60005b83811015611ac5578082015181840152602081019050611aaa565b83811115611ad4576000848401525b50505050565b60006002820490506001821680611af257607f821691505b60208210811415611b0657611b05611b6a565b5b50919050565b7f4e487b7100000000000000000000000000000000000000000000000000000000600052600160045260246000fd5b7f4e487b7100000000000000000000000000000000000000000000000000000000600052601160045260246000fd5b7f4e487b7100000000000000000000000000000000000000000000000000000000600052602260045260246000fd5b600080fd5b6000601f19601f8301169050919050565b7f45524332303a207472616e7366657220746f20746865207a65726f206164647260008201527f6573730000000000000000000000000000000000000000000000000000000000602082015250565b7f4f776e61626c653a206e6577206f776e657220697320746865207a65726f206160008201527f6464726573730000000000000000000000000000000000000000000000000000602082015250565b7f45524332303a20617070726f766520746f20746865207a65726f20616464726560008201527f7373000000000000000000000000000000000000000000000000000000000000602082015250565b7f49434f206973206f766572000000000000000000000000000000000000000000600082015250565b7f45524332303a207472616e7366657220616d6f756e742065786365656473206260008201527f616c616e63650000000000000000000000000000000000000000000000000000602082015250565b7f49434f3a206e6f7420656e6f7567682065746800000000000000000000000000600082015250565b7f49434f3a2062757920746f6b656e207769746820636f6e74726163742061646460008201527f7265737300000000000000000000000000000000000000000000000000000000602082015250565b7f49434f3a206368616e676520616d6f756e740000000000000000000000000000600082015250565b7f45524332303a207472616e736665722066726f6d20746865207a65726f20616460008201527f6472657373000000000000000000000000000000000000000000000000000000602082015250565b7f4f776e65643a2063616c6c6572206973206e6f7420746865206f776e65720000600082015250565b7f45524332303a20617070726f76652066726f6d20746865207a65726f2061646460008201527f7265737300000000000000000000000000000000000000000000000000000000602082015250565b611e8581611a40565b8114611e9057600080fd5b50565b611e9c81611a90565b8114611ea757600080fd5b5056fea26469706673582212201cf14f2f3056a68ddaef6bcaf955838a535d90946831d97be7d8750e01bcc3e264736f6c63430008070033",
  "immutableReferences": {},
  "source": "// SPDX-License-Identifier: MIT\npragma solidity 0.8.7;\n\nimport \"./ERC20/ERC20.sol\";\nimport \"./ERC20/Owned.sol\";\n\ncontract ICO is ERC20(\"Rare Platform Token\", \"RPT\"), Owned {\n    //***ERC20 public token;\n\n    uint256 private initialSupply = 500000 ether; // 1 eth = 10^(18) => decimals = 18\n    uint256 public rateOfChange = 1000;\n    uint256 public raisedAmount;\n    uint256 private minInvestment;\n    uint256 private maxInvestment;\n    address[] listOfInvestors;\n    address payable public depositETHAddress;\n\n    mapping(address => bool) public investors;\n\n    event State(address _address);\n\n    constructor(address payable _depositETHAddress) {\n        //***token = new ERC20(\"Rare Platform Token\", \"RPT\");\n\n        depositETHAddress = _depositETHAddress;\n        mint(msg.sender, initialSupply);\n\n        minInvestment = 0.01 ether;\n        maxInvestment = 10 ether;\n    }\n\n    function buyToken() public payable {\n        // get the owner address (the one used to deploy the contract)\n        address ownerAddress = owner;\n\n        // prevent the contract address to buy tokens\n        require(\n            msg.sender != ownerAddress,\n            \"ICO: buy token with contract address\"\n        );\n\n        // require enough eth to buy tokens\n        require(\n            msg.value != 0 && msg.value < msg.sender.balance,\n            \"ICO: not enough eth\"\n        );\n\n        // prevent buying tokens after all tokens have been sold out.\n        require(raisedAmount + msg.value <= initialSupply, \"ICO is over\");\n\n        // the amount to invest must be in range [minInvestment, maxInvestment]\n        require(\n            msg.value >= minInvestment && msg.value <= maxInvestment,\n            \"ICO: change amount\"\n        );\n\n        // update state variables before calling external function (security).\n        // Register the user only if buying the first time\n        raisedAmount = add(raisedAmount, msg.value);\n\n        if (!investors[msg.sender]) {\n            listOfInvestors.push(msg.sender);\n            investors[msg.sender] = true;\n        }\n\n        // amount of tokens to buy\n        uint256 tokens = msg.value * rateOfChange;\n\n        // send eth to the deposit account of the contract owner,\n        // not to the contract address\n        depositETHAddress.transfer(msg.value);\n\n        // transfer tokens to the buyer\n        _transfer(ownerAddress, msg.sender, tokens);\n    }\n\n    receive() external payable {\n        emit State(msg.sender);\n    }\n\n    fallback() external payable {\n        buyToken();\n    }\n\n    function getListOfUsers() public view returns (address[] memory) {\n        return listOfInvestors;\n    }\n\n    function getOwnerAddress() public view returns (address) {\n        return owner;\n    }\n}\n",
  "sourcePath": "/Users/samuel/Documents/Projet/Pojet_Dev/WaitAndWin/contracts/ICO.sol",
  "compiler": {
    "name": "solc",
    "version": "0.8.7+commit.e28d00a7.Emscripten.clang"
  },
  "schemaVersion": "3.3.4",
  "updatedAt": "2021-09-21T13:54:46.162Z",
  "devdoc": {
    "kind": "dev",
    "methods": {
      "totalSupply()": {
        "details": "returns the total amount of tokens in existence right now, minus any tokens that have been burned."
      }
    },
    "version": 1
  },
  "userdoc": {
    "kind": "user",
    "methods": {},
    "version": 1
  }
}