{
  "contractName": "ImageNFT",
  "abi": [
    {
      "inputs": [],
      "stateMutability": "nonpayable",
      "type": "constructor"
    },
    {
      "anonymous": false,
      "inputs": [
        {
          "indexed": true,
          "internalType": "address",
          "name": "owner",
          "type": "address"
        },
        {
          "indexed": true,
          "internalType": "address",
          "name": "approved",
          "type": "address"
        },
        {
          "indexed": true,
          "internalType": "uint256",
          "name": "tokenId",
          "type": "uint256"
        }
      ],
      "name": "Approval",
      "type": "event"
    },
    {
      "anonymous": false,
      "inputs": [
        {
          "indexed": true,
          "internalType": "address",
          "name": "owner",
          "type": "address"
        },
        {
          "indexed": true,
          "internalType": "address",
          "name": "operator",
          "type": "address"
        },
        {
          "indexed": false,
          "internalType": "bool",
          "name": "approved",
          "type": "bool"
        }
      ],
      "name": "ApprovalForAll",
      "type": "event"
    },
    {
      "anonymous": false,
      "inputs": [
        {
          "indexed": true,
          "internalType": "address",
          "name": "from",
          "type": "address"
        },
        {
          "indexed": true,
          "internalType": "address",
          "name": "to",
          "type": "address"
        },
        {
          "indexed": true,
          "internalType": "uint256",
          "name": "tokenId",
          "type": "uint256"
        }
      ],
      "name": "Transfer",
      "type": "event"
    },
    {
      "inputs": [
        {
          "internalType": "address",
          "name": "to",
          "type": "address"
        },
        {
          "internalType": "uint256",
          "name": "tokenId",
          "type": "uint256"
        }
      ],
      "name": "approve",
      "outputs": [],
      "stateMutability": "nonpayable",
      "type": "function"
    },
    {
      "inputs": [],
      "name": "auctionState",
      "outputs": [
        {
          "internalType": "enum ImageNFT.State",
          "name": "",
          "type": "uint8"
        }
      ],
      "stateMutability": "view",
      "type": "function",
      "constant": true
    },
    {
      "inputs": [
        {
          "internalType": "address",
          "name": "owner",
          "type": "address"
        }
      ],
      "name": "balanceOf",
      "outputs": [
        {
          "internalType": "uint256",
          "name": "",
          "type": "uint256"
        }
      ],
      "stateMutability": "view",
      "type": "function",
      "constant": true
    },
    {
      "inputs": [
        {
          "internalType": "address",
          "name": "",
          "type": "address"
        }
      ],
      "name": "bids",
      "outputs": [
        {
          "internalType": "uint256",
          "name": "",
          "type": "uint256"
        }
      ],
      "stateMutability": "view",
      "type": "function",
      "constant": true
    },
    {
      "inputs": [],
      "name": "counter",
      "outputs": [
        {
          "internalType": "uint256",
          "name": "",
          "type": "uint256"
        }
      ],
      "stateMutability": "view",
      "type": "function",
      "constant": true
    },
    {
      "inputs": [
        {
          "internalType": "uint256",
          "name": "tokenId",
          "type": "uint256"
        }
      ],
      "name": "getApproved",
      "outputs": [
        {
          "internalType": "address",
          "name": "",
          "type": "address"
        }
      ],
      "stateMutability": "view",
      "type": "function",
      "constant": true
    },
    {
      "inputs": [],
      "name": "highestBidder",
      "outputs": [
        {
          "internalType": "address payable",
          "name": "",
          "type": "address"
        }
      ],
      "stateMutability": "view",
      "type": "function",
      "constant": true
    },
    {
      "inputs": [],
      "name": "highestBindingBid",
      "outputs": [
        {
          "internalType": "uint256",
          "name": "",
          "type": "uint256"
        }
      ],
      "stateMutability": "view",
      "type": "function",
      "constant": true
    },
    {
      "inputs": [
        {
          "internalType": "string",
          "name": "",
          "type": "string"
        }
      ],
      "name": "imageIDs",
      "outputs": [
        {
          "internalType": "uint256",
          "name": "",
          "type": "uint256"
        }
      ],
      "stateMutability": "view",
      "type": "function",
      "constant": true
    },
    {
      "inputs": [
        {
          "internalType": "uint256",
          "name": "",
          "type": "uint256"
        }
      ],
      "name": "images",
      "outputs": [
        {
          "internalType": "string",
          "name": "",
          "type": "string"
        }
      ],
      "stateMutability": "view",
      "type": "function",
      "constant": true
    },
    {
      "inputs": [],
      "name": "ipfsHash",
      "outputs": [
        {
          "internalType": "uint256",
          "name": "",
          "type": "uint256"
        }
      ],
      "stateMutability": "view",
      "type": "function",
      "constant": true
    },
    {
      "inputs": [
        {
          "internalType": "address",
          "name": "owner",
          "type": "address"
        },
        {
          "internalType": "address",
          "name": "operator",
          "type": "address"
        }
      ],
      "name": "isApprovedForAll",
      "outputs": [
        {
          "internalType": "bool",
          "name": "",
          "type": "bool"
        }
      ],
      "stateMutability": "view",
      "type": "function",
      "constant": true
    },
    {
      "inputs": [],
      "name": "name",
      "outputs": [
        {
          "internalType": "string",
          "name": "",
          "type": "string"
        }
      ],
      "stateMutability": "view",
      "type": "function",
      "constant": true
    },
    {
      "inputs": [],
      "name": "owner",
      "outputs": [
        {
          "internalType": "address payable",
          "name": "",
          "type": "address"
        }
      ],
      "stateMutability": "view",
      "type": "function",
      "constant": true
    },
    {
      "inputs": [
        {
          "internalType": "uint256",
          "name": "tokenId",
          "type": "uint256"
        }
      ],
      "name": "ownerOf",
      "outputs": [
        {
          "internalType": "address",
          "name": "",
          "type": "address"
        }
      ],
      "stateMutability": "view",
      "type": "function",
      "constant": true
    },
    {
      "inputs": [
        {
          "internalType": "address",
          "name": "from",
          "type": "address"
        },
        {
          "internalType": "address",
          "name": "to",
          "type": "address"
        },
        {
          "internalType": "uint256",
          "name": "tokenId",
          "type": "uint256"
        }
      ],
      "name": "safeTransferFrom",
      "outputs": [],
      "stateMutability": "nonpayable",
      "type": "function"
    },
    {
      "inputs": [
        {
          "internalType": "address",
          "name": "from",
          "type": "address"
        },
        {
          "internalType": "address",
          "name": "to",
          "type": "address"
        },
        {
          "internalType": "uint256",
          "name": "tokenId",
          "type": "uint256"
        },
        {
          "internalType": "bytes",
          "name": "_data",
          "type": "bytes"
        }
      ],
      "name": "safeTransferFrom",
      "outputs": [],
      "stateMutability": "nonpayable",
      "type": "function"
    },
    {
      "inputs": [
        {
          "internalType": "address",
          "name": "operator",
          "type": "address"
        },
        {
          "internalType": "bool",
          "name": "approved",
          "type": "bool"
        }
      ],
      "name": "setApprovalForAll",
      "outputs": [],
      "stateMutability": "nonpayable",
      "type": "function"
    },
    {
      "inputs": [
        {
          "internalType": "bytes4",
          "name": "interfaceId",
          "type": "bytes4"
        }
      ],
      "name": "supportsInterface",
      "outputs": [
        {
          "internalType": "bool",
          "name": "",
          "type": "bool"
        }
      ],
      "stateMutability": "view",
      "type": "function",
      "constant": true
    },
    {
      "inputs": [],
      "name": "symbol",
      "outputs": [
        {
          "internalType": "string",
          "name": "",
          "type": "string"
        }
      ],
      "stateMutability": "view",
      "type": "function",
      "constant": true
    },
    {
      "inputs": [
        {
          "internalType": "uint256",
          "name": "tokenId",
          "type": "uint256"
        }
      ],
      "name": "tokenURI",
      "outputs": [
        {
          "internalType": "string",
          "name": "",
          "type": "string"
        }
      ],
      "stateMutability": "view",
      "type": "function",
      "constant": true
    },
    {
      "inputs": [
        {
          "internalType": "address",
          "name": "from",
          "type": "address"
        },
        {
          "internalType": "address",
          "name": "to",
          "type": "address"
        },
        {
          "internalType": "uint256",
          "name": "tokenId",
          "type": "uint256"
        }
      ],
      "name": "transferFrom",
      "outputs": [],
      "stateMutability": "nonpayable",
      "type": "function"
    },
    {
      "inputs": [
        {
          "internalType": "string",
          "name": "_imageCID",
          "type": "string"
        }
      ],
      "name": "mintImage",
      "outputs": [],
      "stateMutability": "nonpayable",
      "type": "function"
    },
    {
      "inputs": [
        {
          "internalType": "uint256",
          "name": "_imageID",
          "type": "uint256"
        }
      ],
      "name": "buyImage",
      "outputs": [
        {
          "internalType": "bool",
          "name": "",
          "type": "bool"
        }
      ],
      "stateMutability": "payable",
      "type": "function",
      "payable": true
    },
    {
      "inputs": [],
      "name": "placeBid",
      "outputs": [],
      "stateMutability": "payable",
      "type": "function",
      "payable": true
    },
    {
      "inputs": [],
      "name": "endAuction",
      "outputs": [],
      "stateMutability": "nonpayable",
      "type": "function"
    },
    {
      "inputs": [
        {
          "internalType": "uint256",
          "name": "_imageID",
          "type": "uint256"
        }
      ],
      "name": "finalizeAuction",
      "outputs": [],
      "stateMutability": "nonpayable",
      "type": "function"
    }
  ],
  "bytecode": "0x60806040523480156200001157600080fd5b506040518060400160405280600f81526020017f574157204d61726b6574706c61636500000000000000000000000000000000008152506040518060400160405280600481526020017f574e465400000000000000000000000000000000000000000000000000000000815250816000908051906020019062000096929190620000fc565b508060019080519060200190620000af929190620000fc565b505050662386f26fc100006009819055506000600a819055506000600c60146101000a81548160ff02191690836001811115620000f157620000f0620001e2565b5b021790555062000240565b8280546200010a90620001ac565b90600052602060002090601f0160209004810192826200012e57600085556200017a565b82601f106200014957805160ff19168380011785556200017a565b828001600101855582156200017a579182015b82811115620001795782518255916020019190600101906200015c565b5b5090506200018991906200018d565b5090565b5b80821115620001a85760008160009055506001016200018e565b5090565b60006002820490506001821680620001c557607f821691505b60208210811415620001dc57620001db62000211565b5b50919050565b7f4e487b7100000000000000000000000000000000000000000000000000000000600052602160045260246000fd5b7f4e487b7100000000000000000000000000000000000000000000000000000000600052602260045260246000fd5b613c7780620002506000396000f3fe60806040526004361061019c5760003560e01c806384856482116100ec578063c87b56dd1161008a578063ecfc7ecc11610064578063ecfc7ecc14610605578063f5b56c561461060f578063fad862b41461063a578063fe67a54b146106775761019c565b8063c87b56dd14610562578063e80838631461059f578063e985e9c5146105c85761019c565b806395d89b41116100c657806395d89b41146104ba578063a22cb465146104e5578063b88d4fde1461050e578063c623674f146105375761019c565b806384856482146104275780638da5cb5b1461046457806391f901571461048f5761019c565b806323b872dd1161015957806362ea82db1161013357806362ea82db146103455780636352211e1461038257806370a08231146103bf5780637fb45099146103fc5761019c565b806323b872dd146102c857806342842e0e146102f157806361bc221a1461031a5761019c565b806301ffc9a7146101a157806303e6af2e146101de57806306fdde031461020e578063081812fc14610239578063095ea7b314610276578063187af9881461029f575b600080fd5b3480156101ad57600080fd5b506101c860048036038101906101c391906129d7565b61068e565b6040516101d59190612f31565b60405180910390f35b6101f860048036038101906101f39190612a7a565b610770565b6040516102059190612f31565b60405180910390f35b34801561021a57600080fd5b5061022361092f565b6040516102309190612f67565b60405180910390f35b34801561024557600080fd5b50610260600480360381019061025b9190612a7a565b6109c1565b60405161026d9190612eaf565b60405180910390f35b34801561028257600080fd5b5061029d60048036038101906102989190612997565b610a46565b005b3480156102ab57600080fd5b506102c660048036038101906102c19190612a31565b610b5e565b005b3480156102d457600080fd5b506102ef60048036038101906102ea9190612881565b610cd6565b005b3480156102fd57600080fd5b5061031860048036038101906103139190612881565b610d36565b005b34801561032657600080fd5b5061032f610d56565b60405161033c9190613229565b60405180910390f35b34801561035157600080fd5b5061036c60048036038101906103679190612814565b610d5c565b6040516103799190613229565b60405180910390f35b34801561038e57600080fd5b506103a960048036038101906103a49190612a7a565b610d74565b6040516103b69190612eaf565b60405180910390f35b3480156103cb57600080fd5b506103e660048036038101906103e19190612814565b610e26565b6040516103f39190613229565b60405180910390f35b34801561040857600080fd5b50610411610ede565b60405161041e9190612f4c565b60405180910390f35b34801561043357600080fd5b5061044e60048036038101906104499190612a7a565b610ef1565b60405161045b9190612f67565b60405180910390f35b34801561047057600080fd5b50610479610f9d565b6040516104869190612eca565b60405180910390f35b34801561049b57600080fd5b506104a4610fc3565b6040516104b19190612eca565b60405180910390f35b3480156104c657600080fd5b506104cf610fe9565b6040516104dc9190612f67565b60405180910390f35b3480156104f157600080fd5b5061050c60048036038101906105079190612957565b61107b565b005b34801561051a57600080fd5b50610535600480360381019061053091906128d4565b6111fc565b005b34801561054357600080fd5b5061054c61125e565b6040516105599190613229565b60405180910390f35b34801561056e57600080fd5b5061058960048036038101906105849190612a7a565b611264565b6040516105969190612f67565b60405180910390f35b3480156105ab57600080fd5b506105c660048036038101906105c19190612a7a565b61130b565b005b3480156105d457600080fd5b506105ef60048036038101906105ea9190612841565b611642565b6040516105fc9190612f31565b60405180910390f35b61060d6116d6565b005b34801561061b57600080fd5b50610624611a41565b6040516106319190613229565b60405180910390f35b34801561064657600080fd5b50610661600480360381019061065c9190612a31565b611a47565b60405161066e9190613229565b60405180910390f35b34801561068357600080fd5b5061068c611a75565b005b60007f80ac58cd000000000000000000000000000000000000000000000000000000007bffffffffffffffffffffffffffffffffffffffffffffffffffffffff1916827bffffffffffffffffffffffffffffffffffffffffffffffffffffffff1916148061075957507f5b5e139f000000000000000000000000000000000000000000000000000000007bffffffffffffffffffffffffffffffffffffffffffffffffffffffff1916827bffffffffffffffffffffffffffffffffffffffffffffffffffffffff1916145b80610769575061076882611b72565b5b9050919050565b60008061077c83610d74565b90508073ffffffffffffffffffffffffffffffffffffffff163373ffffffffffffffffffffffffffffffffffffffff1614156107ed576040517f08c379a00000000000000000000000000000000000000000000000000000000081526004016107e490612f89565b60405180910390fd5b6000341415801561081457503373ffffffffffffffffffffffffffffffffffffffff163134105b610853576040517f08c379a000000000000000000000000000000000000000000000000000000000815260040161084a906130c9565b60405180910390fd5b8073ffffffffffffffffffffffffffffffffffffffff166108fc349081150290604051600060405180830381858888f19350505050158015610899573d6000803e3d6000fd5b50670de0b6b3a764000034146108e4576040517f08c379a00000000000000000000000000000000000000000000000000000000081526004016108db90613129565b60405180910390fd5b6109258133856040518060400160405280600681526020017f456e6a6f79210000000000000000000000000000000000000000000000000000815250611bdc565b6001915050919050565b60606000805461093e906134b6565b80601f016020809104026020016040519081016040528092919081815260200182805461096a906134b6565b80156109b75780601f1061098c576101008083540402835291602001916109b7565b820191906000526020600020905b81548152906001019060200180831161099a57829003601f168201915b5050505050905090565b60006109cc82611c38565b610a0b576040517f08c379a0000000000000000000000000000000000000000000000000000000008152600401610a0290613169565b60405180910390fd5b6004600083815260200190815260200160002060009054906101000a900473ffffffffffffffffffffffffffffffffffffffff169050919050565b6000610a5182610d74565b90508073ffffffffffffffffffffffffffffffffffffffff168373ffffffffffffffffffffffffffffffffffffffff161415610ac2576040517f08c379a0000000000000000000000000000000000000000000000000000000008152600401610ab9906131c9565b60405180910390fd5b8073ffffffffffffffffffffffffffffffffffffffff16610ae1611ca4565b73ffffffffffffffffffffffffffffffffffffffff161480610b105750610b0f81610b0a611ca4565b611642565b5b610b4f576040517f08c379a0000000000000000000000000000000000000000000000000000000008152600401610b4690613089565b60405180910390fd5b610b598383611cac565b505050565b600e81604051610b6e9190612e74565b908152602001604051809103902060009054906101000a900460ff1615610bca576040517f08c379a0000000000000000000000000000000000000000000000000000000008152600401610bc1906130a9565b60405180910390fd5b60006007549050600682908060018154018082558091505060019003906000526020600020016000909190919091509080519060200190610c0c929190612628565b50610c173382611d65565b6001600e83604051610c299190612e74565b908152602001604051809103902060006101000a81548160ff02191690831515021790555080600f83604051610c5f9190612e74565b908152602001604051809103902081905550610c7a81610d74565b600b60006101000a81548173ffffffffffffffffffffffffffffffffffffffff021916908373ffffffffffffffffffffffffffffffffffffffff16021790555060076000815480929190610ccd90613519565b91905055505050565b610ce7610ce1611ca4565b82611d83565b610d26576040517f08c379a0000000000000000000000000000000000000000000000000000000008152600401610d1d906131e9565b60405180910390fd5b610d31838383611e61565b505050565b610d51838383604051806020016040528060008152506111fc565b505050565b60075481565b600d6020528060005260406000206000915090505481565b6000806002600084815260200190815260200160002060009054906101000a900473ffffffffffffffffffffffffffffffffffffffff169050600073ffffffffffffffffffffffffffffffffffffffff168173ffffffffffffffffffffffffffffffffffffffff161415610e1d576040517f08c379a0000000000000000000000000000000000000000000000000000000008152600401610e1490613109565b60405180910390fd5b80915050919050565b60008073ffffffffffffffffffffffffffffffffffffffff168273ffffffffffffffffffffffffffffffffffffffff161415610e97576040517f08c379a0000000000000000000000000000000000000000000000000000000008152600401610e8e906130e9565b60405180910390fd5b600360008373ffffffffffffffffffffffffffffffffffffffff1673ffffffffffffffffffffffffffffffffffffffff168152602001908152602001600020549050919050565b600c60149054906101000a900460ff1681565b60068181548110610f0157600080fd5b906000526020600020016000915090508054610f1c906134b6565b80601f0160208091040260200160405190810160405280929190818152602001828054610f48906134b6565b8015610f955780601f10610f6a57610100808354040283529160200191610f95565b820191906000526020600020905b815481529060010190602001808311610f7857829003601f168201915b505050505081565b600b60009054906101000a900473ffffffffffffffffffffffffffffffffffffffff1681565b600c60009054906101000a900473ffffffffffffffffffffffffffffffffffffffff1681565b606060018054610ff8906134b6565b80601f0160208091040260200160405190810160405280929190818152602001828054611024906134b6565b80156110715780601f1061104657610100808354040283529160200191611071565b820191906000526020600020905b81548152906001019060200180831161105457829003601f168201915b5050505050905090565b611083611ca4565b73ffffffffffffffffffffffffffffffffffffffff168273ffffffffffffffffffffffffffffffffffffffff1614156110f1576040517f08c379a00000000000000000000000000000000000000000000000000000000081526004016110e890613029565b60405180910390fd5b80600560006110fe611ca4565b73ffffffffffffffffffffffffffffffffffffffff1673ffffffffffffffffffffffffffffffffffffffff16815260200190815260200160002060008473ffffffffffffffffffffffffffffffffffffffff1673ffffffffffffffffffffffffffffffffffffffff16815260200190815260200160002060006101000a81548160ff0219169083151502179055508173ffffffffffffffffffffffffffffffffffffffff166111ab611ca4565b73ffffffffffffffffffffffffffffffffffffffff167f17307eab39ab6107e8899845ad3d59bd9653f200f220920489ca2b5937696c31836040516111f09190612f31565b60405180910390a35050565b61120d611207611ca4565b83611d83565b61124c576040517f08c379a0000000000000000000000000000000000000000000000000000000008152600401611243906131e9565b60405180910390fd5b61125884848484611bdc565b50505050565b60085481565b606061126f82611c38565b6112ae576040517f08c379a00000000000000000000000000000000000000000000000000000000081526004016112a5906131a9565b60405180910390fd5b60006112b86120bd565b905060008151116112d85760405180602001604052806000815250611303565b806112e2846120d4565b6040516020016112f3929190612e8b565b6040516020818303038152906040525b915050919050565b60018081111561131e5761131d6135f1565b5b600c60149054906101000a900460ff1660018111156113405761133f6135f1565b5b1461134a57600080fd5b600b60009054906101000a900473ffffffffffffffffffffffffffffffffffffffff1673ffffffffffffffffffffffffffffffffffffffff163373ffffffffffffffffffffffffffffffffffffffff16141580156113e757506000600d60003373ffffffffffffffffffffffffffffffffffffffff1673ffffffffffffffffffffffffffffffffffffffff16815260200190815260200160002054115b6113f057600080fd5b600080600c60009054906101000a900473ffffffffffffffffffffffffffffffffffffffff1673ffffffffffffffffffffffffffffffffffffffff163373ffffffffffffffffffffffffffffffffffffffff1614156115b057600c60009054906101000a900473ffffffffffffffffffffffffffffffffffffffff169150600a54600d6000600c60009054906101000a900473ffffffffffffffffffffffffffffffffffffffff1673ffffffffffffffffffffffffffffffffffffffff1673ffffffffffffffffffffffffffffffffffffffff168152602001908152602001600020546114dd9190613395565b9050600b60009054906101000a900473ffffffffffffffffffffffffffffffffffffffff1673ffffffffffffffffffffffffffffffffffffffff166108fc829081150290604051600060405180830381858888f19350505050158015611547573d6000803e3d6000fd5b506115ab600b60009054906101000a900473ffffffffffffffffffffffffffffffffffffffff1683856040518060400160405280600681526020017f456e6a6f79210000000000000000000000000000000000000000000000000000815250611bdc565b61163d565b339150600d60003373ffffffffffffffffffffffffffffffffffffffff1673ffffffffffffffffffffffffffffffffffffffff1681526020019081526020016000205490508173ffffffffffffffffffffffffffffffffffffffff166108fc829081150290604051600060405180830381858888f1935050505015801561163b573d6000803e3d6000fd5b505b505050565b6000600560008473ffffffffffffffffffffffffffffffffffffffff1673ffffffffffffffffffffffffffffffffffffffff16815260200190815260200160002060008373ffffffffffffffffffffffffffffffffffffffff1673ffffffffffffffffffffffffffffffffffffffff16815260200190815260200160002060009054906101000a900460ff16905092915050565b600b60009054906101000a900473ffffffffffffffffffffffffffffffffffffffff1673ffffffffffffffffffffffffffffffffffffffff163373ffffffffffffffffffffffffffffffffffffffff161415611767576040517f08c379a000000000000000000000000000000000000000000000000000000000815260040161175e90613209565b60405180910390fd5b6000600181111561177b5761177a6135f1565b5b600c60149054906101000a900460ff16600181111561179d5761179c6135f1565b5b146117a757600080fd5b67013fbe85edc900003410156117f2576040517f08c379a00000000000000000000000000000000000000000000000000000000081526004016117e990612fe9565b60405180910390fd5b600034600d60003373ffffffffffffffffffffffffffffffffffffffff1673ffffffffffffffffffffffffffffffffffffffff1681526020019081526020016000205461183f919061330e565b9050600a54811161184f57600080fd5b80600d60003373ffffffffffffffffffffffffffffffffffffffff1673ffffffffffffffffffffffffffffffffffffffff16815260200190815260200160002081905550600d6000600c60009054906101000a900473ffffffffffffffffffffffffffffffffffffffff1673ffffffffffffffffffffffffffffffffffffffff1673ffffffffffffffffffffffffffffffffffffffff16815260200190815260200160002054811161197e576119736009548261190c919061330e565b600d6000600c60009054906101000a900473ffffffffffffffffffffffffffffffffffffffff1673ffffffffffffffffffffffffffffffffffffffff1673ffffffffffffffffffffffffffffffffffffffff16815260200190815260200160002054612235565b600a81905550611a3e565b6119f681600954600d6000600c60009054906101000a900473ffffffffffffffffffffffffffffffffffffffff1673ffffffffffffffffffffffffffffffffffffffff1673ffffffffffffffffffffffffffffffffffffffff168152602001908152602001600020546119f1919061330e565b612235565b600a8190555033600c60006101000a81548173ffffffffffffffffffffffffffffffffffffffff021916908373ffffffffffffffffffffffffffffffffffffffff1602179055505b50565b600a5481565b600f818051602081018201805184825260208301602085012081835280955050505050506000915090505481565b600b60009054906101000a900473ffffffffffffffffffffffffffffffffffffffff1673ffffffffffffffffffffffffffffffffffffffff163373ffffffffffffffffffffffffffffffffffffffff1614611b05576040517f08c379a0000000000000000000000000000000000000000000000000000000008152600401611afc90613049565b60405180910390fd5b60006001811115611b1957611b186135f1565b5b600c60149054906101000a900460ff166001811115611b3b57611b3a6135f1565b5b14611b4557600080fd5b6001600c60146101000a81548160ff02191690836001811115611b6b57611b6a6135f1565b5b0217905550565b60007f01ffc9a7000000000000000000000000000000000000000000000000000000007bffffffffffffffffffffffffffffffffffffffffffffffffffffffff1916827bffffffffffffffffffffffffffffffffffffffffffffffffffffffff1916149050919050565b611be7848484611e61565b611bf384848484612250565b611c32576040517f08c379a0000000000000000000000000000000000000000000000000000000008152600401611c2990612fa9565b60405180910390fd5b50505050565b60008073ffffffffffffffffffffffffffffffffffffffff166002600084815260200190815260200160002060009054906101000a900473ffffffffffffffffffffffffffffffffffffffff1673ffffffffffffffffffffffffffffffffffffffff1614159050919050565b600033905090565b816004600083815260200190815260200160002060006101000a81548173ffffffffffffffffffffffffffffffffffffffff021916908373ffffffffffffffffffffffffffffffffffffffff160217905550808273ffffffffffffffffffffffffffffffffffffffff16611d1f83610d74565b73ffffffffffffffffffffffffffffffffffffffff167f8c5be1e5ebec7d5bd14f71427d1e84f3dd0314c0f7b2291e5b200ac8c7c3b92560405160405180910390a45050565b611d7f8282604051806020016040528060008152506123e7565b5050565b6000611d8e82611c38565b611dcd576040517f08c379a0000000000000000000000000000000000000000000000000000000008152600401611dc490613069565b60405180910390fd5b6000611dd883610d74565b90508073ffffffffffffffffffffffffffffffffffffffff168473ffffffffffffffffffffffffffffffffffffffff161480611e4757508373ffffffffffffffffffffffffffffffffffffffff16611e2f846109c1565b73ffffffffffffffffffffffffffffffffffffffff16145b80611e585750611e578185611642565b5b91505092915050565b8273ffffffffffffffffffffffffffffffffffffffff16611e8182610d74565b73ffffffffffffffffffffffffffffffffffffffff1614611ed7576040517f08c379a0000000000000000000000000000000000000000000000000000000008152600401611ece90613189565b60405180910390fd5b600073ffffffffffffffffffffffffffffffffffffffff168273ffffffffffffffffffffffffffffffffffffffff161415611f47576040517f08c379a0000000000000000000000000000000000000000000000000000000008152600401611f3e90613009565b60405180910390fd5b611f52838383612442565b611f5d600082611cac565b6001600360008573ffffffffffffffffffffffffffffffffffffffff1673ffffffffffffffffffffffffffffffffffffffff1681526020019081526020016000206000828254611fad9190613395565b925050819055506001600360008473ffffffffffffffffffffffffffffffffffffffff1673ffffffffffffffffffffffffffffffffffffffff1681526020019081526020016000206000828254612004919061330e565b92505081905550816002600083815260200190815260200160002060006101000a81548173ffffffffffffffffffffffffffffffffffffffff021916908373ffffffffffffffffffffffffffffffffffffffff160217905550808273ffffffffffffffffffffffffffffffffffffffff168473ffffffffffffffffffffffffffffffffffffffff167fddf252ad1be2c89b69c2b068fc378daa952ba7f163c4a11628f55a4df523b3ef60405160405180910390a4505050565b606060405180602001604052806000815250905090565b6060600082141561211c576040518060400160405280600181526020017f30000000000000000000000000000000000000000000000000000000000000008152509050612230565b600082905060005b6000821461214e57808061213790613519565b915050600a826121479190613364565b9150612124565b60008167ffffffffffffffff81111561216a5761216961367e565b5b6040519080825280601f01601f19166020018201604052801561219c5781602001600182028036833780820191505090505b5090505b60008514612229576001826121b59190613395565b9150600a856121c49190613562565b60306121d0919061330e565b60f81b8183815181106121e6576121e561364f565b5b60200101907effffffffffffffffffffffffffffffffffffffffffffffffffffffffffffff1916908160001a905350600a856122229190613364565b94506121a0565b8093505050505b919050565b60008183116122465782905061224a565b8190505b92915050565b60006122718473ffffffffffffffffffffffffffffffffffffffff16612447565b156123da578373ffffffffffffffffffffffffffffffffffffffff1663150b7a0261229a611ca4565b8786866040518563ffffffff1660e01b81526004016122bc9493929190612ee5565b602060405180830381600087803b1580156122d657600080fd5b505af192505050801561230757506040513d601f19601f820116820180604052508101906123049190612a04565b60015b61238a573d8060008114612337576040519150601f19603f3d011682016040523d82523d6000602084013e61233c565b606091505b50600081511415612382576040517f08c379a000000000000000000000000000000000000000000000000000000000815260040161237990612fa9565b60405180910390fd5b805181602001fd5b63150b7a0260e01b7bffffffffffffffffffffffffffffffffffffffffffffffffffffffff1916817bffffffffffffffffffffffffffffffffffffffffffffffffffffffff1916149150506123df565b600190505b949350505050565b6123f1838361245a565b6123fe6000848484612250565b61243d576040517f08c379a000000000000000000000000000000000000000000000000000000000815260040161243490612fa9565b60405180910390fd5b505050565b505050565b600080823b905060008111915050919050565b600073ffffffffffffffffffffffffffffffffffffffff168273ffffffffffffffffffffffffffffffffffffffff1614156124ca576040517f08c379a00000000000000000000000000000000000000000000000000000000081526004016124c190613149565b60405180910390fd5b6124d381611c38565b15612513576040517f08c379a000000000000000000000000000000000000000000000000000000000815260040161250a90612fc9565b60405180910390fd5b61251f60008383612442565b6001600360008473ffffffffffffffffffffffffffffffffffffffff1673ffffffffffffffffffffffffffffffffffffffff168152602001908152602001600020600082825461256f919061330e565b92505081905550816002600083815260200190815260200160002060006101000a81548173ffffffffffffffffffffffffffffffffffffffff021916908373ffffffffffffffffffffffffffffffffffffffff160217905550808273ffffffffffffffffffffffffffffffffffffffff16600073ffffffffffffffffffffffffffffffffffffffff167fddf252ad1be2c89b69c2b068fc378daa952ba7f163c4a11628f55a4df523b3ef60405160405180910390a45050565b828054612634906134b6565b90600052602060002090601f016020900481019282612656576000855561269d565b82601f1061266f57805160ff191683800117855561269d565b8280016001018555821561269d579182015b8281111561269c578251825591602001919060010190612681565b5b5090506126aa91906126ae565b5090565b5b808211156126c75760008160009055506001016126af565b5090565b60006126de6126d984613269565b613244565b9050828152602081018484840111156126fa576126f96136b2565b5b612705848285613474565b509392505050565b600061272061271b8461329a565b613244565b90508281526020810184848401111561273c5761273b6136b2565b5b612747848285613474565b509392505050565b60008135905061275e81613be5565b92915050565b60008135905061277381613bfc565b92915050565b60008135905061278881613c13565b92915050565b60008151905061279d81613c13565b92915050565b600082601f8301126127b8576127b76136ad565b5b81356127c88482602086016126cb565b91505092915050565b600082601f8301126127e6576127e56136ad565b5b81356127f684826020860161270d565b91505092915050565b60008135905061280e81613c2a565b92915050565b60006020828403121561282a576128296136bc565b5b60006128388482850161274f565b91505092915050565b60008060408385031215612858576128576136bc565b5b60006128668582860161274f565b92505060206128778582860161274f565b9150509250929050565b60008060006060848603121561289a576128996136bc565b5b60006128a88682870161274f565b93505060206128b98682870161274f565b92505060406128ca868287016127ff565b9150509250925092565b600080600080608085870312156128ee576128ed6136bc565b5b60006128fc8782880161274f565b945050602061290d8782880161274f565b935050604061291e878288016127ff565b925050606085013567ffffffffffffffff81111561293f5761293e6136b7565b5b61294b878288016127a3565b91505092959194509250565b6000806040838503121561296e5761296d6136bc565b5b600061297c8582860161274f565b925050602061298d85828601612764565b9150509250929050565b600080604083850312156129ae576129ad6136bc565b5b60006129bc8582860161274f565b92505060206129cd858286016127ff565b9150509250929050565b6000602082840312156129ed576129ec6136bc565b5b60006129fb84828501612779565b91505092915050565b600060208284031215612a1a57612a196136bc565b5b6000612a288482850161278e565b91505092915050565b600060208284031215612a4757612a466136bc565b5b600082013567ffffffffffffffff811115612a6557612a646136b7565b5b612a71848285016127d1565b91505092915050565b600060208284031215612a9057612a8f6136bc565b5b6000612a9e848285016127ff565b91505092915050565b612ab0816133db565b82525050565b612abf816133c9565b82525050565b612ace816133ed565b82525050565b6000612adf826132cb565b612ae981856132e1565b9350612af9818560208601613483565b612b02816136c1565b840191505092915050565b612b1681613462565b82525050565b6000612b27826132d6565b612b3181856132f2565b9350612b41818560208601613483565b612b4a816136c1565b840191505092915050565b6000612b60826132d6565b612b6a8185613303565b9350612b7a818560208601613483565b80840191505092915050565b6000612b936016836132f2565b9150612b9e826136d2565b602082019050919050565b6000612bb66032836132f2565b9150612bc1826136fb565b604082019050919050565b6000612bd9601c836132f2565b9150612be48261374a565b602082019050919050565b6000612bfc600a836132f2565b9150612c0782613773565b602082019050919050565b6000612c1f6024836132f2565b9150612c2a8261379c565b604082019050919050565b6000612c426019836132f2565b9150612c4d826137eb565b602082019050919050565b6000612c656009836132f2565b9150612c7082613814565b602082019050919050565b6000612c88602c836132f2565b9150612c938261383d565b604082019050919050565b6000612cab6038836132f2565b9150612cb68261388c565b604082019050919050565b6000612cce6014836132f2565b9150612cd9826138db565b602082019050919050565b6000612cf16018836132f2565b9150612cfc82613904565b602082019050919050565b6000612d14602a836132f2565b9150612d1f8261392d565b604082019050919050565b6000612d376029836132f2565b9150612d428261397c565b604082019050919050565b6000612d5a6013836132f2565b9150612d65826139cb565b602082019050919050565b6000612d7d6020836132f2565b9150612d88826139f4565b602082019050919050565b6000612da0602c836132f2565b9150612dab82613a1d565b604082019050919050565b6000612dc36029836132f2565b9150612dce82613a6c565b604082019050919050565b6000612de6602f836132f2565b9150612df182613abb565b604082019050919050565b6000612e096021836132f2565b9150612e1482613b0a565b604082019050919050565b6000612e2c6031836132f2565b9150612e3782613b59565b604082019050919050565b6000612e4f600c836132f2565b9150612e5a82613ba8565b602082019050919050565b612e6e81613458565b82525050565b6000612e808284612b55565b915081905092915050565b6000612e978285612b55565b9150612ea38284612b55565b91508190509392505050565b6000602082019050612ec46000830184612ab6565b92915050565b6000602082019050612edf6000830184612aa7565b92915050565b6000608082019050612efa6000830187612ab6565b612f076020830186612ab6565b612f146040830185612e65565b8181036060830152612f268184612ad4565b905095945050505050565b6000602082019050612f466000830184612ac5565b92915050565b6000602082019050612f616000830184612b0d565b92915050565b60006020820190508181036000830152612f818184612b1c565b905092915050565b60006020820190508181036000830152612fa281612b86565b9050919050565b60006020820190508181036000830152612fc281612ba9565b9050919050565b60006020820190508181036000830152612fe281612bcc565b9050919050565b6000602082019050818103600083015261300281612bef565b9050919050565b6000602082019050818103600083015261302281612c12565b9050919050565b6000602082019050818103600083015261304281612c35565b9050919050565b6000602082019050818103600083015261306281612c58565b9050919050565b6000602082019050818103600083015261308281612c7b565b9050919050565b600060208201905081810360008301526130a281612c9e565b9050919050565b600060208201905081810360008301526130c281612cc1565b9050919050565b600060208201905081810360008301526130e281612ce4565b9050919050565b6000602082019050818103600083015261310281612d07565b9050919050565b6000602082019050818103600083015261312281612d2a565b9050919050565b6000602082019050818103600083015261314281612d4d565b9050919050565b6000602082019050818103600083015261316281612d70565b9050919050565b6000602082019050818103600083015261318281612d93565b9050919050565b600060208201905081810360008301526131a281612db6565b9050919050565b600060208201905081810360008301526131c281612dd9565b9050919050565b600060208201905081810360008301526131e281612dfc565b9050919050565b6000602082019050818103600083015261320281612e1f565b9050919050565b6000602082019050818103600083015261322281612e42565b9050919050565b600060208201905061323e6000830184612e65565b92915050565b600061324e61325f565b905061325a82826134e8565b919050565b6000604051905090565b600067ffffffffffffffff8211156132845761328361367e565b5b61328d826136c1565b9050602081019050919050565b600067ffffffffffffffff8211156132b5576132b461367e565b5b6132be826136c1565b9050602081019050919050565b600081519050919050565b600081519050919050565b600082825260208201905092915050565b600082825260208201905092915050565b600081905092915050565b600061331982613458565b915061332483613458565b9250827fffffffffffffffffffffffffffffffffffffffffffffffffffffffffffffffff0382111561335957613358613593565b5b828201905092915050565b600061336f82613458565b915061337a83613458565b92508261338a576133896135c2565b5b828204905092915050565b60006133a082613458565b91506133ab83613458565b9250828210156133be576133bd613593565b5b828203905092915050565b60006133d482613438565b9050919050565b60006133e682613438565b9050919050565b60008115159050919050565b60007fffffffff0000000000000000000000000000000000000000000000000000000082169050919050565b600081905061343382613bd1565b919050565b600073ffffffffffffffffffffffffffffffffffffffff82169050919050565b6000819050919050565b600061346d82613425565b9050919050565b82818337600083830152505050565b60005b838110156134a1578082015181840152602081019050613486565b838111156134b0576000848401525b50505050565b600060028204905060018216806134ce57607f821691505b602082108114156134e2576134e1613620565b5b50919050565b6134f1826136c1565b810181811067ffffffffffffffff821117156135105761350f61367e565b5b80604052505050565b600061352482613458565b91507fffffffffffffffffffffffffffffffffffffffffffffffffffffffffffffffff82141561355757613556613593565b5b600182019050919050565b600061356d82613458565b915061357883613458565b925082613588576135876135c2565b5b828206905092915050565b7f4e487b7100000000000000000000000000000000000000000000000000000000600052601160045260246000fd5b7f4e487b7100000000000000000000000000000000000000000000000000000000600052601260045260246000fd5b7f4e487b7100000000000000000000000000000000000000000000000000000000600052602160045260246000fd5b7f4e487b7100000000000000000000000000000000000000000000000000000000600052602260045260246000fd5b7f4e487b7100000000000000000000000000000000000000000000000000000000600052603260045260246000fd5b7f4e487b7100000000000000000000000000000000000000000000000000000000600052604160045260246000fd5b600080fd5b600080fd5b600080fd5b600080fd5b6000601f19601f8301169050919050565b7f496d6167654e46543a20627579206279206f776e657200000000000000000000600082015250565b7f4552433732313a207472616e7366657220746f206e6f6e20455243373231526560008201527f63656976657220696d706c656d656e7465720000000000000000000000000000602082015250565b7f4552433732313a20746f6b656e20616c7265616479206d696e74656400000000600082015250565b7f6d696e3a20312045544800000000000000000000000000000000000000000000600082015250565b7f4552433732313a207472616e7366657220746f20746865207a65726f2061646460008201527f7265737300000000000000000000000000000000000000000000000000000000602082015250565b7f4552433732313a20617070726f766520746f2063616c6c657200000000000000600082015250565b7f4e6f74204f776e65720000000000000000000000000000000000000000000000600082015250565b7f4552433732313a206f70657261746f7220717565727920666f72206e6f6e657860008201527f697374656e7420746f6b656e0000000000000000000000000000000000000000602082015250565b7f4552433732313a20617070726f76652063616c6c6572206973206e6f74206f7760008201527f6e6572206e6f7220617070726f76656420666f7220616c6c0000000000000000602082015250565b7f696d61676520616c7265616479206d696e746564000000000000000000000000600082015250565b7f496d6167654e46543a206e6f7420656e6f756768206574680000000000000000600082015250565b7f4552433732313a2062616c616e636520717565727920666f7220746865207a6560008201527f726f206164647265737300000000000000000000000000000000000000000000602082015250565b7f4552433732313a206f776e657220717565727920666f72206e6f6e657869737460008201527f656e7420746f6b656e0000000000000000000000000000000000000000000000602082015250565b7f496d6167654e46543a2070617920312045544800000000000000000000000000600082015250565b7f4552433732313a206d696e7420746f20746865207a65726f2061646472657373600082015250565b7f4552433732313a20617070726f76656420717565727920666f72206e6f6e657860008201527f697374656e7420746f6b656e0000000000000000000000000000000000000000602082015250565b7f4552433732313a207472616e73666572206f6620746f6b656e2074686174206960008201527f73206e6f74206f776e0000000000000000000000000000000000000000000000602082015250565b7f4552433732314d657461646174613a2055524920717565727920666f72206e6f60008201527f6e6578697374656e7420746f6b656e0000000000000000000000000000000000602082015250565b7f4552433732313a20617070726f76616c20746f2063757272656e74206f776e6560008201527f7200000000000000000000000000000000000000000000000000000000000000602082015250565b7f4552433732313a207472616e736665722063616c6c6572206973206e6f74206f60008201527f776e6572206e6f7220617070726f766564000000000000000000000000000000602082015250565b7f596f75277265204f776e65720000000000000000000000000000000000000000600082015250565b60028110613be257613be16135f1565b5b50565b613bee816133c9565b8114613bf957600080fd5b50565b613c05816133ed565b8114613c1057600080fd5b50565b613c1c816133f9565b8114613c2757600080fd5b50565b613c3381613458565b8114613c3e57600080fd5b5056fea2646970667358221220241139b610eb970bcd0882406a0381a12a93da5b279659fed7217acdb16ad55a64736f6c63430008070033",
  "immutableReferences": {},
  "source": "// SPDX-License-Identifier: MIT\npragma solidity 0.8.7;\n\nimport \"../client/node_modules/@openzeppelin/contracts/token/ERC721/ERC721.sol\";\n\ncontract ImageNFT is ERC721(\"WAW Marketplace\", \"WNFT\") {\n    string[] public images;\n\n    uint256 public counter;\n    uint256 public ipfsHash;\n    uint256 bidIncrement;\n    uint256 public highestBindingBid;\n\n    address payable public owner;\n    address payable public highestBidder;\n\n    enum State {\n        Running,\n        Ended\n    }\n\n    State public auctionState;\n\n    mapping(address => uint256) public bids;\n    mapping(string => bool) imageAlreadyMinted;\n    mapping(string => uint256) public imageIDs;\n\n    //====\n\n    constructor() {\n        // Initialize the bid incrment to 0.01 ETH\n        bidIncrement = 0.01 ether; // 10000000000000000;\n        highestBindingBid = 0;\n\n        // The auction starts when the contract is deployed\n        auctionState = State.Running;\n    }\n\n    function mintImage(string memory _imageCID) public {\n        // cannot mint the same image twice.\n        // IPFS will be used to store images returning a unique CID (image URI).\n        // Since CIDs are based on the image content, same image will always\n        // return same CID.\n        require(!imageAlreadyMinted[_imageCID], \"image already minted\");\n        uint256 newImageId = counter;\n\n        // store the image URI on the Blockchain\n        images.push(_imageCID);\n\n        // mint the image\n        _safeMint(msg.sender, newImageId);\n\n        // store the information that the image has been minted\n        imageAlreadyMinted[_imageCID] = true;\n\n        // store the image ID of the image in a mapping\n        imageIDs[_imageCID] = newImageId;\n\n        // transfer the ownership of the image\n        owner = payable(ownerOf(newImageId));\n\n        counter++;\n    }\n\n    function buyImage(uint256 _imageID) public payable returns (bool) {\n        // ERC721 contract defines requires needed\n        // Double checking would not be optimal since it costs gas\n\n        // get the owner of the image. Always work with local variable\n        // not state variable.\n        address payable ownerAddress = payable(ownerOf(_imageID));\n\n        require(msg.sender != ownerAddress, \"ImageNFT: buy by owner\");\n\n        // cash out ETH\n        require(\n            msg.value != 0 && msg.value < msg.sender.balance,\n            \"ImageNFT: not enough eth\"\n        );\n        payable(ownerAddress).transfer(msg.value);\n\n        // transfer the token CID from the owner to the buyer\n        // images cost 1 ETH\n        require(msg.value == 1 ether, \"ImageNFT: pay 1 ETH\");\n        _safeTransfer(ownerAddress, msg.sender, _imageID, \"Enjoy!\");\n\n        return true;\n    }\n\n    //=== Auction\n    function placeBid() public payable {\n        require(msg.sender != owner, \"You're Owner\");\n        require(auctionState == State.Running);\n        require(msg.value >= 0.09 ether, \"min: 1 ETH\");\n\n        uint256 currentBid = bids[msg.sender] + msg.value;\n        require(currentBid > highestBindingBid);\n        bids[msg.sender] = currentBid;\n\n        if (currentBid <= bids[highestBidder]) {\n            highestBindingBid = min(\n                currentBid + bidIncrement,\n                bids[highestBidder]\n            );\n        } else {\n            highestBindingBid = min(\n                currentBid,\n                bids[highestBidder] + bidIncrement\n            );\n            highestBidder = payable(msg.sender);\n        }\n    }\n\n    function endAuction() public {\n        require(msg.sender == owner, \"Not Owner\");\n        require(auctionState == State.Running);\n\n        auctionState = State.Ended;\n    }\n\n    // Withdrawal pattern to avoid re-entrance attacks\n    // refund the looser and transfer the image to the highestBidder\n    function finalizeAuction(uint256 _imageID) public {\n        // Auction need to be cancelled or ended.\n        // only the owner or a bidder can finalize the auction\n        require(auctionState == State.Ended);\n        require(msg.sender != owner && bids[msg.sender] > 0);\n\n        address payable recipient;\n        uint256 value;\n\n        // if the caller is the winner, transfer the NFT image\n        // if not refund\n        if (msg.sender == highestBidder) {\n            recipient = highestBidder;\n            value = bids[highestBidder] - highestBindingBid;\n\n            // send the amount of ETH to the owner\n            owner.transfer(value);\n\n            // transfer the NFT image to the highestBidder\n            _safeTransfer(owner, recipient, _imageID, \"Enjoy!\");\n        } else {\n            recipient = payable(msg.sender);\n            value = bids[msg.sender];\n\n            recipient.transfer(value);\n        }\n    }\n\n    function min(uint256 a, uint256 b) internal pure returns (uint256) {\n        if (a <= b) {\n            return a;\n        } else {\n            return b;\n        }\n    }\n}\n",
  "sourcePath": "/Users/samuel/Documents/Projet/Pojet_Dev/WaitAndWin/contracts/ImageNFT.sol",
  "compiler": {
    "name": "solc",
    "version": "0.8.7+commit.e28d00a7.Emscripten.clang"
  },
  "schemaVersion": "3.3.4",
  "updatedAt": "2021-09-22T15:16:56.738Z",
  "networkType": "ethereum",
  "devdoc": {
    "kind": "dev",
    "methods": {
      "approve(address,uint256)": {
        "details": "See {IERC721-approve}."
      },
      "balanceOf(address)": {
        "details": "See {IERC721-balanceOf}."
      },
      "getApproved(uint256)": {
        "details": "See {IERC721-getApproved}."
      },
      "isApprovedForAll(address,address)": {
        "details": "See {IERC721-isApprovedForAll}."
      },
      "name()": {
        "details": "See {IERC721Metadata-name}."
      },
      "ownerOf(uint256)": {
        "details": "See {IERC721-ownerOf}."
      },
      "safeTransferFrom(address,address,uint256)": {
        "details": "See {IERC721-safeTransferFrom}."
      },
      "safeTransferFrom(address,address,uint256,bytes)": {
        "details": "See {IERC721-safeTransferFrom}."
      },
      "setApprovalForAll(address,bool)": {
        "details": "See {IERC721-setApprovalForAll}."
      },
      "supportsInterface(bytes4)": {
        "details": "See {IERC165-supportsInterface}."
      },
      "symbol()": {
        "details": "See {IERC721Metadata-symbol}."
      },
      "tokenURI(uint256)": {
        "details": "See {IERC721Metadata-tokenURI}."
      },
      "transferFrom(address,address,uint256)": {
        "details": "See {IERC721-transferFrom}."
      }
    },
    "version": 1
  },
  "userdoc": {
    "kind": "user",
    "methods": {},
    "version": 1
  }
}