{
  "contractName": "WaitAndWin",
  "abi": [
    {
      "inputs": [
        {
          "internalType": "address payable",
          "name": "_depositETHAddress",
          "type": "address"
        }
      ],
      "stateMutability": "nonpayable",
      "type": "constructor"
    },
    {
      "anonymous": false,
      "inputs": [
        {
          "indexed": true,
          "internalType": "address",
          "name": "owner",
          "type": "address"
        },
        {
          "indexed": true,
          "internalType": "address",
          "name": "spender",
          "type": "address"
        },
        {
          "indexed": false,
          "internalType": "uint256",
          "name": "tokens",
          "type": "uint256"
        }
      ],
      "name": "Approval",
      "type": "event"
    },
    {
      "anonymous": false,
      "inputs": [
        {
          "indexed": true,
          "internalType": "address",
          "name": "oldOwner",
          "type": "address"
        },
        {
          "indexed": true,
          "internalType": "address",
          "name": "newOwner",
          "type": "address"
        }
      ],
      "name": "NewOwner",
      "type": "event"
    },
    {
      "anonymous": false,
      "inputs": [
        {
          "indexed": false,
          "internalType": "address",
          "name": "_address",
          "type": "address"
        }
      ],
      "name": "TokenPayed",
      "type": "event"
    },
    {
      "anonymous": false,
      "inputs": [
        {
          "indexed": true,
          "internalType": "address",
          "name": "from",
          "type": "address"
        },
        {
          "indexed": true,
          "internalType": "address",
          "name": "to",
          "type": "address"
        },
        {
          "indexed": false,
          "internalType": "uint256",
          "name": "tokens",
          "type": "uint256"
        }
      ],
      "name": "Transfer",
      "type": "event"
    },
    {
      "stateMutability": "payable",
      "type": "fallback",
      "payable": true
    },
    {
      "inputs": [
        {
          "internalType": "address",
          "name": "_owner",
          "type": "address"
        },
        {
          "internalType": "address",
          "name": "_spender",
          "type": "address"
        }
      ],
      "name": "allowance",
      "outputs": [
        {
          "internalType": "uint256",
          "name": "",
          "type": "uint256"
        }
      ],
      "stateMutability": "view",
      "type": "function",
      "constant": true
    },
    {
      "inputs": [
        {
          "internalType": "address",
          "name": "_spender",
          "type": "address"
        },
        {
          "internalType": "uint256",
          "name": "_tokens",
          "type": "uint256"
        }
      ],
      "name": "approve",
      "outputs": [
        {
          "internalType": "bool",
          "name": "",
          "type": "bool"
        }
      ],
      "stateMutability": "nonpayable",
      "type": "function"
    },
    {
      "inputs": [
        {
          "internalType": "address",
          "name": "_account",
          "type": "address"
        }
      ],
      "name": "balanceOf",
      "outputs": [
        {
          "internalType": "uint256",
          "name": "",
          "type": "uint256"
        }
      ],
      "stateMutability": "view",
      "type": "function",
      "constant": true
    },
    {
      "inputs": [],
      "name": "decimals",
      "outputs": [
        {
          "internalType": "uint8",
          "name": "",
          "type": "uint8"
        }
      ],
      "stateMutability": "pure",
      "type": "function",
      "constant": true
    },
    {
      "inputs": [],
      "name": "depositETHAddress",
      "outputs": [
        {
          "internalType": "address payable",
          "name": "",
          "type": "address"
        }
      ],
      "stateMutability": "view",
      "type": "function",
      "constant": true
    },
    {
      "inputs": [
        {
          "internalType": "address",
          "name": "",
          "type": "address"
        }
      ],
      "name": "investors",
      "outputs": [
        {
          "internalType": "bool",
          "name": "",
          "type": "bool"
        }
      ],
      "stateMutability": "view",
      "type": "function",
      "constant": true
    },
    {
      "inputs": [],
      "name": "name",
      "outputs": [
        {
          "internalType": "string",
          "name": "",
          "type": "string"
        }
      ],
      "stateMutability": "view",
      "type": "function",
      "constant": true
    },
    {
      "inputs": [],
      "name": "numberOfRegisteredPools",
      "outputs": [
        {
          "internalType": "uint256",
          "name": "",
          "type": "uint256"
        }
      ],
      "stateMutability": "view",
      "type": "function",
      "constant": true
    },
    {
      "inputs": [
        {
          "internalType": "string",
          "name": "",
          "type": "string"
        }
      ],
      "name": "poolState",
      "outputs": [
        {
          "internalType": "enum WaitAndWin.State",
          "name": "",
          "type": "uint8"
        }
      ],
      "stateMutability": "view",
      "type": "function",
      "constant": true
    },
    {
      "inputs": [],
      "name": "raisedAmount",
      "outputs": [
        {
          "internalType": "uint256",
          "name": "",
          "type": "uint256"
        }
      ],
      "stateMutability": "view",
      "type": "function",
      "constant": true
    },
    {
      "inputs": [],
      "name": "rateOfChange",
      "outputs": [
        {
          "internalType": "uint256",
          "name": "",
          "type": "uint256"
        }
      ],
      "stateMutability": "view",
      "type": "function",
      "constant": true
    },
    {
      "inputs": [],
      "name": "renounceOwnership",
      "outputs": [],
      "stateMutability": "nonpayable",
      "type": "function"
    },
    {
      "inputs": [
        {
          "internalType": "address",
          "name": "",
          "type": "address"
        }
      ],
      "name": "stakers",
      "outputs": [
        {
          "internalType": "bool",
          "name": "isStaking",
          "type": "bool"
        },
        {
          "internalType": "uint256",
          "name": "startStakingTime",
          "type": "uint256"
        },
        {
          "internalType": "uint256",
          "name": "amountStaked",
          "type": "uint256"
        },
        {
          "internalType": "uint256",
          "name": "rewards",
          "type": "uint256"
        },
        {
          "internalType": "uint256",
          "name": "numberOfStakers",
          "type": "uint256"
        }
      ],
      "stateMutability": "view",
      "type": "function",
      "constant": true
    },
    {
      "inputs": [],
      "name": "symbol",
      "outputs": [
        {
          "internalType": "string",
          "name": "",
          "type": "string"
        }
      ],
      "stateMutability": "view",
      "type": "function",
      "constant": true
    },
    {
      "inputs": [],
      "name": "totalSupply",
      "outputs": [
        {
          "internalType": "uint256",
          "name": "",
          "type": "uint256"
        }
      ],
      "stateMutability": "view",
      "type": "function",
      "constant": true
    },
    {
      "inputs": [
        {
          "internalType": "address",
          "name": "_to",
          "type": "address"
        },
        {
          "internalType": "uint256",
          "name": "_tokens",
          "type": "uint256"
        }
      ],
      "name": "transfer",
      "outputs": [
        {
          "internalType": "bool",
          "name": "",
          "type": "bool"
        }
      ],
      "stateMutability": "nonpayable",
      "type": "function"
    },
    {
      "inputs": [
        {
          "internalType": "address",
          "name": "_from",
          "type": "address"
        },
        {
          "internalType": "address",
          "name": "_to",
          "type": "address"
        },
        {
          "internalType": "uint256",
          "name": "_tokens",
          "type": "uint256"
        }
      ],
      "name": "transferFrom",
      "outputs": [
        {
          "internalType": "bool",
          "name": "",
          "type": "bool"
        }
      ],
      "stateMutability": "nonpayable",
      "type": "function"
    },
    {
      "inputs": [
        {
          "internalType": "address",
          "name": "_newOwner",
          "type": "address"
        }
      ],
      "name": "transferOwnership",
      "outputs": [],
      "stateMutability": "nonpayable",
      "type": "function"
    },
    {
      "inputs": [
        {
          "internalType": "address",
          "name": "",
          "type": "address"
        },
        {
          "internalType": "string",
          "name": "",
          "type": "string"
        }
      ],
      "name": "userRegistered",
      "outputs": [
        {
          "internalType": "bool",
          "name": "",
          "type": "bool"
        }
      ],
      "stateMutability": "view",
      "type": "function",
      "constant": true
    },
    {
      "inputs": [
        {
          "internalType": "address",
          "name": "",
          "type": "address"
        }
      ],
      "name": "users",
      "outputs": [
        {
          "internalType": "address",
          "name": "userAddress",
          "type": "address"
        },
        {
          "internalType": "uint256",
          "name": "numberOfPools",
          "type": "uint256"
        }
      ],
      "stateMutability": "view",
      "type": "function",
      "constant": true
    },
    {
      "inputs": [
        {
          "internalType": "string",
          "name": "",
          "type": "string"
        }
      ],
      "name": "vPools",
      "outputs": [
        {
          "internalType": "bool",
          "name": "registered",
          "type": "bool"
        },
        {
          "internalType": "string",
          "name": "ID",
          "type": "string"
        },
        {
          "internalType": "uint256",
          "name": "price",
          "type": "uint256"
        },
        {
          "internalType": "uint256",
          "name": "prize",
          "type": "uint256"
        },
        {
          "internalType": "uint256",
          "name": "numberOfUsers",
          "type": "uint256"
        },
        {
          "internalType": "uint256",
          "name": "numberOfVoters",
          "type": "uint256"
        },
        {
          "internalType": "uint256",
          "name": "startRegistrationTime",
          "type": "uint256"
        },
        {
          "internalType": "uint256",
          "name": "endRegistrationTime",
          "type": "uint256"
        },
        {
          "internalType": "uint256",
          "name": "endTime",
          "type": "uint256"
        }
      ],
      "stateMutability": "view",
      "type": "function",
      "constant": true
    },
    {
      "stateMutability": "payable",
      "type": "receive",
      "payable": true
    },
    {
      "inputs": [
        {
          "internalType": "string",
          "name": "_poolID",
          "type": "string"
        },
        {
          "internalType": "uint256",
          "name": "_token",
          "type": "uint256"
        }
      ],
      "name": "RegisterOrJoinPool",
      "outputs": [],
      "stateMutability": "nonpayable",
      "type": "function"
    },
    {
      "inputs": [
        {
          "internalType": "string",
          "name": "_poolID",
          "type": "string"
        },
        {
          "internalType": "uint256",
          "name": "_token",
          "type": "uint256"
        }
      ],
      "name": "joinPool",
      "outputs": [],
      "stateMutability": "nonpayable",
      "type": "function"
    },
    {
      "inputs": [
        {
          "internalType": "string",
          "name": "_poolID",
          "type": "string"
        },
        {
          "internalType": "uint256",
          "name": "_vote",
          "type": "uint256"
        }
      ],
      "name": "voteForPool",
      "outputs": [],
      "stateMutability": "nonpayable",
      "type": "function"
    },
    {
      "inputs": [
        {
          "internalType": "string",
          "name": "_poolID",
          "type": "string"
        },
        {
          "internalType": "uint256[]",
          "name": "_initialTab",
          "type": "uint256[]"
        }
      ],
      "name": "rankDistribution",
      "outputs": [
        {
          "internalType": "uint256[]",
          "name": "",
          "type": "uint256[]"
        }
      ],
      "stateMutability": "pure",
      "type": "function",
      "constant": true
    },
    {
      "inputs": [
        {
          "internalType": "string",
          "name": "_poolID",
          "type": "string"
        },
        {
          "internalType": "uint256",
          "name": "numberOfWinners",
          "type": "uint256"
        }
      ],
      "name": "withdrawPoolPrize",
      "outputs": [],
      "stateMutability": "payable",
      "type": "function",
      "payable": true
    },
    {
      "inputs": [],
      "name": "buyToken",
      "outputs": [],
      "stateMutability": "payable",
      "type": "function",
      "payable": true
    },
    {
      "inputs": [
        {
          "internalType": "uint256",
          "name": "_amount",
          "type": "uint256"
        }
      ],
      "name": "stakeTokens",
      "outputs": [],
      "stateMutability": "payable",
      "type": "function",
      "payable": true
    },
    {
      "inputs": [
        {
          "internalType": "uint256",
          "name": "_amount",
          "type": "uint256"
        }
      ],
      "name": "unstakeTokens",
      "outputs": [],
      "stateMutability": "payable",
      "type": "function",
      "payable": true
    },
    {
      "inputs": [
        {
          "internalType": "string",
          "name": "_poolID",
          "type": "string"
        }
      ],
      "name": "getNumberOfVoters",
      "outputs": [
        {
          "internalType": "uint256",
          "name": "",
          "type": "uint256"
        }
      ],
      "stateMutability": "view",
      "type": "function",
      "constant": true
    },
    {
      "inputs": [
        {
          "internalType": "address",
          "name": "_address",
          "type": "address"
        },
        {
          "internalType": "string",
          "name": "_poolID",
          "type": "string"
        }
      ],
      "name": "getUserVote",
      "outputs": [
        {
          "internalType": "uint256",
          "name": "",
          "type": "uint256"
        }
      ],
      "stateMutability": "view",
      "type": "function",
      "constant": true
    },
    {
      "inputs": [
        {
          "internalType": "uint256",
          "name": "_index",
          "type": "uint256"
        },
        {
          "internalType": "string",
          "name": "_poolID",
          "type": "string"
        }
      ],
      "name": "getVoterAddress",
      "outputs": [
        {
          "internalType": "address",
          "name": "",
          "type": "address"
        }
      ],
      "stateMutability": "view",
      "type": "function",
      "constant": true
    },
    {
      "inputs": [],
      "name": "getListOfUsers",
      "outputs": [
        {
          "internalType": "address[]",
          "name": "",
          "type": "address[]"
        }
      ],
      "stateMutability": "view",
      "type": "function",
      "constant": true
    },
    {
      "inputs": [],
      "name": "getOwnerAddress",
      "outputs": [
        {
          "internalType": "address",
          "name": "",
          "type": "address"
        }
      ],
      "stateMutability": "view",
      "type": "function",
      "constant": true
    },
    {
      "inputs": [],
      "name": "getUserPools",
      "outputs": [
        {
          "internalType": "string[]",
          "name": "",
          "type": "string[]"
        }
      ],
      "stateMutability": "view",
      "type": "function",
      "constant": true
    },
    {
      "inputs": [
        {
          "internalType": "string",
          "name": "_poolID",
          "type": "string"
        }
      ],
      "name": "getPoolState",
      "outputs": [
        {
          "internalType": "enum WaitAndWin.State",
          "name": "",
          "type": "uint8"
        }
      ],
      "stateMutability": "view",
      "type": "function",
      "constant": true
    },
    {
      "inputs": [
        {
          "internalType": "string",
          "name": "_poolID",
          "type": "string"
        }
      ],
      "name": "getPoolTimes",
      "outputs": [
        {
          "internalType": "uint256",
          "name": "",
          "type": "uint256"
        },
        {
          "internalType": "uint256",
          "name": "",
          "type": "uint256"
        },
        {
          "internalType": "uint256",
          "name": "",
          "type": "uint256"
        }
      ],
      "stateMutability": "view",
      "type": "function",
      "constant": true
    },
    {
      "inputs": [
        {
          "internalType": "string",
          "name": "_poolID",
          "type": "string"
        }
      ],
      "name": "isUserRegistered",
      "outputs": [
        {
          "internalType": "bool",
          "name": "",
          "type": "bool"
        }
      ],
      "stateMutability": "view",
      "type": "function",
      "constant": true
    },
    {
      "inputs": [
        {
          "internalType": "string",
          "name": "_poolID",
          "type": "string"
        }
      ],
      "name": "hasUserVoted",
      "outputs": [
        {
          "internalType": "bool",
          "name": "",
          "type": "bool"
        }
      ],
      "stateMutability": "view",
      "type": "function",
      "constant": true
    },
    {
      "inputs": [],
      "name": "getUserVotes",
      "outputs": [
        {
          "internalType": "uint256[]",
          "name": "",
          "type": "uint256[]"
        }
      ],
      "stateMutability": "view",
      "type": "function",
      "constant": true
    },
    {
      "inputs": [
        {
          "internalType": "string",
          "name": "_poolID",
          "type": "string"
        }
      ],
      "name": "hasUserWithdrawed",
      "outputs": [
        {
          "internalType": "bool",
          "name": "",
          "type": "bool"
        }
      ],
      "stateMutability": "view",
      "type": "function",
      "constant": true
    }
  ],
  "bytecode": "0x608060405233600560006101000a81548173ffffffffffffffffffffffffffffffffffffffff021916908373ffffffffffffffffffffffffffffffffffffffff1602179055506969e10de76676d0800000600b556103e8600c553480156200006657600080fd5b5060405162005cb938038062005cb983398181016040528101906200008c9190620004c5565b6040518060400160405280600c81526020017f5761697420416e642057696e00000000000000000000000000000000000000008152506040518060400160405280600381526020017f5741570000000000000000000000000000000000000000000000000000000000815250816003908051906020019062000110929190620003fe565b50806004908051906020019062000129929190620003fe565b5050506000600a8190555080601160006101000a81548173ffffffffffffffffffffffffffffffffffffffff021916908373ffffffffffffffffffffffffffffffffffffffff1602179055506200018933600b54620001fd60201b60201c565b662386f26fc10000600e81905550678ac7230489e80000600f81905550620001b66200039e60201b60201c565b601260006101000a81548173ffffffffffffffffffffffffffffffffffffffff021916908373ffffffffffffffffffffffffffffffffffffffff1602179055505062000725565b600073ffffffffffffffffffffffffffffffffffffffff168273ffffffffffffffffffffffffffffffffffffffff16141562000270576040517f08c379a000000000000000000000000000000000000000000000000000000000815260040162000267906200052f565b60405180910390fd5b6200028460008383620003c860201b60201c565b6200029860025482620003cd60201b60201c565b600281905550620002f06000808473ffffffffffffffffffffffffffffffffffffffff1673ffffffffffffffffffffffffffffffffffffffff16815260200190815260200160002054600254620003cd60201b60201c565b6000808473ffffffffffffffffffffffffffffffffffffffff1673ffffffffffffffffffffffffffffffffffffffff168152602001908152602001600020819055508173ffffffffffffffffffffffffffffffffffffffff16600073ffffffffffffffffffffffffffffffffffffffff167fddf252ad1be2c89b69c2b068fc378daa952ba7f163c4a11628f55a4df523b3ef8360405162000392919062000551565b60405180910390a35050565b6000600560009054906101000a900473ffffffffffffffffffffffffffffffffffffffff16905090565b505050565b6000808284620003de91906200057f565b905083811015620003f457620003f362000650565b5b8091505092915050565b8280546200040c906200061a565b90600052602060002090601f0160209004810192826200043057600085556200047c565b82601f106200044b57805160ff19168380011785556200047c565b828001600101855582156200047c579182015b828111156200047b5782518255916020019190600101906200045e565b5b5090506200048b91906200048f565b5090565b5b80821115620004aa57600081600090555060010162000490565b5090565b600081519050620004bf816200070b565b92915050565b600060208284031215620004de57620004dd620006dd565b5b6000620004ee84828501620004ae565b91505092915050565b600062000506601f836200056e565b91506200051382620006e2565b602082019050919050565b620005298162000610565b82525050565b600060208201905081810360008301526200054a81620004f7565b9050919050565b60006020820190506200056860008301846200051e565b92915050565b600082825260208201905092915050565b60006200058c8262000610565b9150620005998362000610565b9250827fffffffffffffffffffffffffffffffffffffffffffffffffffffffffffffffff03821115620005d157620005d06200067f565b5b828201905092915050565b6000620005e982620005f0565b9050919050565b600073ffffffffffffffffffffffffffffffffffffffff82169050919050565b6000819050919050565b600060028204905060018216806200063357607f821691505b602082108114156200064a5762000649620006ae565b5b50919050565b7f4e487b7100000000000000000000000000000000000000000000000000000000600052600160045260246000fd5b7f4e487b7100000000000000000000000000000000000000000000000000000000600052601160045260246000fd5b7f4e487b7100000000000000000000000000000000000000000000000000000000600052602260045260246000fd5b600080fd5b7f45524332303a206d696e7420746f20746865207a65726f206164647265737300600082015250565b6200071681620005dc565b81146200072257600080fd5b50565b61558480620007356000396000f3fe6080604052600436106102495760003560e01c8063715018a611610139578063a4821719116100b6578063c59ee1dc1161007a578063c59ee1dc1461094d578063d5f3c68514610978578063dd62ed3e146109b5578063e5d4ce58146109f2578063f0cbe22214610a2f578063f2fde38b14610a5857610287565b8063a48217191461084e578063a87430ba14610858578063a8cc778414610896578063a9059cbb146108d3578063b1fac27a1461091057610287565b80639b904f0a116100fd5780639b904f0a146107275780639e4bbaf2146107645780639fdfb4171461078f578063a1b5d584146107cc578063a2d446321461081157610287565b8063715018a61461065d5780637547c7a31461067457806376ce574b146106905780639168ae72146106bb57806395d89b41146106fc57610287565b806326f1024f116101c7578063608e4dd01161018b578063608e4dd01461057157806365e93b3f1461058d5780636b0a26d2146105b85780636f7bc9be146105e357806370a082311461062057610287565b806326f1024f146104ab578063313ce567146104d657806337b52667146105015780633a64173b1461052c57806346f74efd1461055557610287565b80630c4f65bd1161020e5780630c4f65bd146103b057806318160ddd146103db5780631be71a8b1461040657806323b872dd14610445578063259f55281461048257610287565b8062bf68421461029157806303238587146102ce57806306fdde031461030b57806306ff33f814610336578063095ea7b31461037357610287565b36610287577f0f938de8d59759fad0d6e1f2564adbe3a706a940503b52b26a7cd9e553036a083360405161027d91906144a4565b60405180910390a1005b61028f610a81565b005b34801561029d57600080fd5b506102b860048036038101906102b39190613cf6565b610de7565b6040516102c59190614547565b60405180910390f35b3480156102da57600080fd5b506102f560048036038101906102f09190613cad565b610f3a565b604051610302919061466b565b60405180910390f35b34801561031757600080fd5b50610320610fa8565b60405161032d9190614686565b60405180910390f35b34801561034257600080fd5b5061035d60048036038101906103589190613df7565b611036565b60405161036a91906144a4565b60405180910390f35b34801561037f57600080fd5b5061039a60048036038101906103959190613c6d565b611093565b6040516103a79190614569565b60405180910390f35b3480156103bc57600080fd5b506103c5611264565b6040516103d291906144a4565b60405180910390f35b3480156103e757600080fd5b506103f061128e565b6040516103fd91906149c8565b60405180910390f35b34801561041257600080fd5b5061042d60048036038101906104289190613cad565b611298565b60405161043c939291906149e3565b60405180910390f35b34801561045157600080fd5b5061046c60048036038101906104679190613bbe565b611310565b6040516104799190614569565b60405180910390f35b34801561048e57600080fd5b506104a960048036038101906104a49190613d6e565b6113b6565b005b3480156104b757600080fd5b506104c0611832565b6040516104cd9190614525565b60405180910390f35b3480156104e257600080fd5b506104eb61194b565b6040516104f89190614a1a565b60405180910390f35b34801561050d57600080fd5b50610516611954565b6040516105239190614503565b60405180910390f35b34801561053857600080fd5b50610553600480360381019061054e9190613d6e565b6119e2565b005b61056f600480360381019061056a9190613d6e565b611e8b565b005b61058b60048036038101906105869190613dca565b61211f565b005b34801561059957600080fd5b506105a26123b5565b6040516105af9190614547565b60405180910390f35b3480156105c457600080fd5b506105cd61244d565b6040516105da91906149c8565b60405180910390f35b3480156105ef57600080fd5b5061060a60048036038101906106059190613b51565b612453565b6040516106179190614569565b60405180910390f35b34801561062c57600080fd5b5061064760048036038101906106429190613b51565b612473565b60405161065491906149c8565b60405180910390f35b34801561066957600080fd5b506106726124bb565b005b61068e60048036038101906106899190613dca565b61260c565b005b34801561069c57600080fd5b506106a5612a32565b6040516106b291906144bf565b60405180910390f35b3480156106c757600080fd5b506106e260048036038101906106dd9190613b51565b612a58565b6040516106f3959493929190614618565b60405180910390f35b34801561070857600080fd5b50610711612a9b565b60405161071e9190614686565b60405180910390f35b34801561073357600080fd5b5061074e60048036038101906107499190613cad565b612b29565b60405161075b91906149c8565b60405180910390f35b34801561077057600080fd5b50610779612b54565b60405161078691906149c8565b60405180910390f35b34801561079b57600080fd5b506107b660048036038101906107b19190613c11565b612b5a565b6040516107c391906149c8565b60405180910390f35b3480156107d857600080fd5b506107f360048036038101906107ee9190613cad565b612bc3565b60405161080899989796959493929190614584565b60405180910390f35b34801561081d57600080fd5b5061083860048036038101906108339190613cad565b612cbc565b6040516108459190614569565b60405180910390f35b610856610a81565b005b34801561086457600080fd5b5061087f600480360381019061087a9190613b51565b612d31565b60405161088d9291906144da565b60405180910390f35b3480156108a257600080fd5b506108bd60048036038101906108b89190613cad565b612d75565b6040516108ca9190614569565b60405180910390f35b3480156108df57600080fd5b506108fa60048036038101906108f59190613c6d565b612de7565b6040516109079190614569565b60405180910390f35b34801561091c57600080fd5b5061093760048036038101906109329190613cad565b612dfe565b6040516109449190614569565b60405180910390f35b34801561095957600080fd5b50610962612e73565b60405161096f91906149c8565b60405180910390f35b34801561098457600080fd5b5061099f600480360381019061099a9190613cad565b612e79565b6040516109ac919061466b565b60405180910390f35b3480156109c157600080fd5b506109dc60048036038101906109d79190613b7e565b612eaf565b6040516109e991906149c8565b60405180910390f35b3480156109fe57600080fd5b50610a196004803603810190610a149190613c11565b612f36565b604051610a269190614569565b60405180910390f35b348015610a3b57600080fd5b50610a566004803603810190610a519190613d6e565b612f7b565b005b348015610a6457600080fd5b50610a7f6004803603810190610a7a9190613b51565b6134f9565b005b601260009054906101000a900473ffffffffffffffffffffffffffffffffffffffff1673ffffffffffffffffffffffffffffffffffffffff163373ffffffffffffffffffffffffffffffffffffffff161415610b12576040517f08c379a0000000000000000000000000000000000000000000000000000000008152600401610b0990614848565b60405180910390fd5b60003414158015610b3957503373ffffffffffffffffffffffffffffffffffffffff163134105b610b78576040517f08c379a0000000000000000000000000000000000000000000000000000000008152600401610b6f90614828565b60405180910390fd5b600b5434600d54610b899190614b9a565b1115610bca576040517f08c379a0000000000000000000000000000000000000000000000000000000008152600401610bc190614788565b60405180910390fd5b600e543410158015610bde5750600f543411155b610c1d576040517f08c379a0000000000000000000000000000000000000000000000000000000008152600401610c14906148a8565b60405180910390fd5b610c29600d54346136b9565b600d81905550601360003373ffffffffffffffffffffffffffffffffffffffff1673ffffffffffffffffffffffffffffffffffffffff16815260200190815260200160002060009054906101000a900460ff16610d3c576010339080600181540180825580915050600190039060005260206000200160009091909190916101000a81548173ffffffffffffffffffffffffffffffffffffffff021916908373ffffffffffffffffffffffffffffffffffffffff1602179055506001601360003373ffffffffffffffffffffffffffffffffffffffff1673ffffffffffffffffffffffffffffffffffffffff16815260200190815260200160002060006101000a81548160ff0219169083151502179055505b6000600c5434610d4c9190614c21565b9050601160009054906101000a900473ffffffffffffffffffffffffffffffffffffffff1673ffffffffffffffffffffffffffffffffffffffff166108fc349081150290604051600060405180830381858888f19350505050158015610db6573d6000803e3d6000fd5b50610de4601260009054906101000a900473ffffffffffffffffffffffffffffffffffffffff1633836136e5565b50565b606060008251905060008351905060005b81811015610f2e57600060018488888581518110610e1957610e18614f79565b5b6020026020010151604051602001610e3292919061447c565b6040516020818303038152906040528051906020012060001c610e559190614e5d565b610e5f9190614b9a565b9050600086600183610e719190614c7b565b81518110610e8257610e81614f79565b5b6020026020010151905086600186610e9a9190614c7b565b81518110610eab57610eaa614f79565b5b602002602001015187600184610ec19190614c7b565b81518110610ed257610ed1614f79565b5b6020026020010181815250508087600187610eed9190614c7b565b81518110610efe57610efd614f79565b5b602002602001018181525050600185610f179190614c7b565b945050508080610f2690614e0a565b915050610df8565b50839250505092915050565b6000600682604051610f4c9190614465565b9081526020016040518091039020600701544211610f6d5760009050610fa3565b600682604051610f7d9190614465565b9081526020016040518091039020600801544211610f9e5760019050610fa3565b600290505b919050565b60038054610fb590614da7565b80601f0160208091040260200160405190810160405280929190818152602001828054610fe190614da7565b801561102e5780601f106110035761010080835404028352916020019161102e565b820191906000526020600020905b81548152906001019060200180831161101157829003601f168201915b505050505081565b60006006826040516110489190614465565b9081526020016040518091039020600b01600084815260200190815260200160002060009054906101000a900473ffffffffffffffffffffffffffffffffffffffff16905092915050565b60008073ffffffffffffffffffffffffffffffffffffffff163373ffffffffffffffffffffffffffffffffffffffff161415611104576040517f08c379a00000000000000000000000000000000000000000000000000000000081526004016110fb90614908565b60405180910390fd5b600073ffffffffffffffffffffffffffffffffffffffff168373ffffffffffffffffffffffffffffffffffffffff161415611174576040517f08c379a000000000000000000000000000000000000000000000000000000000815260040161116b90614768565b60405180910390fd5b81600160003373ffffffffffffffffffffffffffffffffffffffff1673ffffffffffffffffffffffffffffffffffffffff16815260200190815260200160002060008573ffffffffffffffffffffffffffffffffffffffff1673ffffffffffffffffffffffffffffffffffffffff168152602001908152602001600020819055508273ffffffffffffffffffffffffffffffffffffffff163373ffffffffffffffffffffffffffffffffffffffff167f8c5be1e5ebec7d5bd14f71427d1e84f3dd0314c0f7b2291e5b200ac8c7c3b9258460405161125291906149c8565b60405180910390a36001905092915050565b6000600560009054906101000a900473ffffffffffffffffffffffffffffffffffffffff16905090565b6000600254905090565b60008060006006846040516112ad9190614465565b9081526020016040518091039020600601546006856040516112cf9190614465565b9081526020016040518091039020600701546006866040516112f19190614465565b9081526020016040518091039020600801549250925092509193909250565b600080600160008673ffffffffffffffffffffffffffffffffffffffff1673ffffffffffffffffffffffffffffffffffffffff16815260200190815260200160002060003373ffffffffffffffffffffffffffffffffffffffff1673ffffffffffffffffffffffffffffffffffffffff1681526020019081526020016000205490508281101561139f57600080fd5b6113aa8585856136e5565b60019150509392505050565b600960003373ffffffffffffffffffffffffffffffffffffffff1673ffffffffffffffffffffffffffffffffffffffff168152602001908152602001600020826040516114039190614465565b908152602001604051809103902060009054906101000a900460ff161561145f576040517f08c379a0000000000000000000000000000000000000000000000000000000008152600401611456906147c8565b60405180910390fd5b60068260405161146f9190614465565b908152602001604051809103902060000160009054906101000a900460ff166114cd576040517f08c379a00000000000000000000000000000000000000000000000000000000081526004016114c490614928565b60405180910390fd5b6006826040516114dd9190614465565b908152602001604051809103902060070154421115611531576040517f08c379a000000000000000000000000000000000000000000000000000000000815260040161152890614988565b60405180910390fd5b600061153c33612473565b905080821115611581576040517f08c379a000000000000000000000000000000000000000000000000000000000815260040161157890614948565b60405180910390fd5b6115ad601260009054906101000a900473ffffffffffffffffffffffffffffffffffffffff1683612de7565b5060006014846040516115c09190614465565b908152602001604051809103902060006101000a81548160ff021916908360028111156115f0576115ef614f1b565b5b02179055506006836040516116059190614465565b9081526020016040518091039020600401600081548092919061162790614e0a565b91905055508160068460405161163d9190614465565b9081526020016040518091039020600301600082825461165d9190614b9a565b9250508190555033600760003373ffffffffffffffffffffffffffffffffffffffff1673ffffffffffffffffffffffffffffffffffffffff16815260200190815260200160002060000160006101000a81548173ffffffffffffffffffffffffffffffffffffffff021916908373ffffffffffffffffffffffffffffffffffffffff160217905550600760003373ffffffffffffffffffffffffffffffffffffffff1673ffffffffffffffffffffffffffffffffffffffff16815260200190815260200160002060020183908060018154018082558091505060019003906000526020600020016000909190919091509080519060200190611760929190613976565b50600760003373ffffffffffffffffffffffffffffffffffffffff1673ffffffffffffffffffffffffffffffffffffffff16815260200190815260200160002060010160008154809291906117b490614e0a565b91905055506001600960003373ffffffffffffffffffffffffffffffffffffffff1673ffffffffffffffffffffffffffffffffffffffff168152602001908152602001600020846040516118089190614465565b908152602001604051809103902060006101000a81548160ff021916908315150217905550505050565b6060600760003373ffffffffffffffffffffffffffffffffffffffff1673ffffffffffffffffffffffffffffffffffffffff168152602001908152602001600020600201805480602002602001604051908101604052809291908181526020016000905b828210156119425783829060005260206000200180546118b590614da7565b80601f01602080910402602001604051908101604052809291908181526020018280546118e190614da7565b801561192e5780601f106119035761010080835404028352916020019161192e565b820191906000526020600020905b81548152906001019060200180831161191157829003601f168201915b505050505081526020019060010190611896565b50505050905090565b60006012905090565b606060108054806020026020016040519081016040528092919081815260200182805480156119d857602002820191906000526020600020905b8160009054906101000a900473ffffffffffffffffffffffffffffffffffffffff1673ffffffffffffffffffffffffffffffffffffffff168152602001906001019080831161198e575b5050505050905090565b6006826040516119f29190614465565b908152602001604051809103902060000160009054906101000a900460ff1615611a51576040517f08c379a0000000000000000000000000000000000000000000000000000000008152600401611a48906149a8565b60405180910390fd5b6000611a5c33612473565b905080821115611aa1576040517f08c379a0000000000000000000000000000000000000000000000000000000008152600401611a9890614948565b60405180910390fd5b42600684604051611ab29190614465565b908152602001604051809103902060060181905550607842611ad49190614b9a565b600684604051611ae49190614465565b90815260200160405180910390206007018190555061012c42611b079190614b9a565b600684604051611b179190614465565b9081526020016040518091039020600801819055506001600684604051611b3e9190614465565b908152602001604051809103902060000160006101000a81548160ff02191690831515021790555082600684604051611b779190614465565b90815260200160405180910390206001019080519060200190611b9b929190613976565b5081600684604051611bad9190614465565b908152602001604051809103902060020181905550600683604051611bd29190614465565b90815260200160405180910390206004016000815480929190611bf490614e0a565b919050555081600684604051611c0a9190614465565b90815260200160405180910390206003016000828254611c2a9190614b9a565b92505081905550600a6000815480929190611c4490614e0a565b91905055506000601484604051611c5b9190614465565b908152602001604051809103902060006101000a81548160ff02191690836002811115611c8b57611c8a614f1b565b5b021790555033600760003373ffffffffffffffffffffffffffffffffffffffff1673ffffffffffffffffffffffffffffffffffffffff16815260200190815260200160002060000160006101000a81548173ffffffffffffffffffffffffffffffffffffffff021916908373ffffffffffffffffffffffffffffffffffffffff160217905550600760003373ffffffffffffffffffffffffffffffffffffffff1673ffffffffffffffffffffffffffffffffffffffff16815260200190815260200160002060020183908060018154018082558091505060019003906000526020600020016000909190919091509080519060200190611d8c929190613976565b50600760003373ffffffffffffffffffffffffffffffffffffffff1673ffffffffffffffffffffffffffffffffffffffff1681526020019081526020016000206001016000815480929190611de090614e0a565b91905055506001600960003373ffffffffffffffffffffffffffffffffffffffff1673ffffffffffffffffffffffffffffffffffffffff16815260200190815260200160002084604051611e349190614465565b908152602001604051809103902060006101000a81548160ff021916908315150217905550611e85601260009054906101000a900473ffffffffffffffffffffffffffffffffffffffff1683612de7565b50505050565b600682604051611e9b9190614465565b9081526020016040518091039020600801544211611eee576040517f08c379a0000000000000000000000000000000000000000000000000000000008152600401611ee590614808565b60405180910390fd5b600682604051611efe9190614465565b908152602001604051809103902060090160003373ffffffffffffffffffffffffffffffffffffffff1673ffffffffffffffffffffffffffffffffffffffff16815260200190815260200160002060009054906101000a900460ff16611f99576040517f08c379a0000000000000000000000000000000000000000000000000000000008152600401611f9090614888565b60405180910390fd5b600682604051611fa99190614465565b9081526020016040518091039020600c0160003373ffffffffffffffffffffffffffffffffffffffff1673ffffffffffffffffffffffffffffffffffffffff16815260200190815260200160002060009054906101000a900460ff1615612045576040517f08c379a000000000000000000000000000000000000000000000000000000000815260040161203c90614868565b60405180910390fd5b6000816006846040516120589190614465565b9081526020016040518091039020600301546120749190614bf0565b905060016006846040516120889190614465565b9081526020016040518091039020600c0160003373ffffffffffffffffffffffffffffffffffffffff1673ffffffffffffffffffffffffffffffffffffffff16815260200190815260200160002060006101000a81548160ff02191690831515021790555061211a601260009054906101000a900473ffffffffffffffffffffffffffffffffffffffff1633836136e5565b505050565b6000600860003373ffffffffffffffffffffffffffffffffffffffff1673ffffffffffffffffffffffffffffffffffffffff168152602001908152602001600020600201549050808211156121a9576040517f08c379a00000000000000000000000000000000000000000000000000000000081526004016121a090614968565b60405180910390fd5b6000600860003373ffffffffffffffffffffffffffffffffffffffff1673ffffffffffffffffffffffffffffffffffffffff16815260200190815260200160002060010154426121f99190614c7b565b905060008163bcf25c8061220d9190614c21565b846122189190614c21565b905061222c81670de0b6b3a7640000613960565b90506000818561223c9190614b9a565b9050848461224a9190614c7b565b600860003373ffffffffffffffffffffffffffffffffffffffff1673ffffffffffffffffffffffffffffffffffffffff168152602001908152602001600020600201819055506000600860003373ffffffffffffffffffffffffffffffffffffffff1673ffffffffffffffffffffffffffffffffffffffff168152602001908152602001600020600301819055508385141561238157600860003373ffffffffffffffffffffffffffffffffffffffff1673ffffffffffffffffffffffffffffffffffffffff168152602001908152602001600020600401600081548092919061233390614d7d565b91905055506000600860003373ffffffffffffffffffffffffffffffffffffffff1673ffffffffffffffffffffffffffffffffffffffff168152602001908152602001600020600101819055505b6123ae601260009054906101000a900473ffffffffffffffffffffffffffffffffffffffff1633836136e5565b5050505050565b6060600760003373ffffffffffffffffffffffffffffffffffffffff1673ffffffffffffffffffffffffffffffffffffffff16815260200190815260200160002060030180548060200260200160405190810160405280929190818152602001828054801561244357602002820191906000526020600020905b81548152602001906001019080831161242f575b5050505050905090565b600c5481565b60136020528060005260406000206000915054906101000a900460ff1681565b60008060008373ffffffffffffffffffffffffffffffffffffffff1673ffffffffffffffffffffffffffffffffffffffff168152602001908152602001600020549050919050565b600560009054906101000a900473ffffffffffffffffffffffffffffffffffffffff1673ffffffffffffffffffffffffffffffffffffffff163373ffffffffffffffffffffffffffffffffffffffff161461254b576040517f08c379a0000000000000000000000000000000000000000000000000000000008152600401612542906148e8565b60405180910390fd5b600073ffffffffffffffffffffffffffffffffffffffff16600560009054906101000a900473ffffffffffffffffffffffffffffffffffffffff1673ffffffffffffffffffffffffffffffffffffffff167f70aea8d848e8a90fb7661b227dc522eb6395c3dac71b63cb59edd5c9899b236460405160405180910390a36000600560006101000a81548173ffffffffffffffffffffffffffffffffffffffff021916908373ffffffffffffffffffffffffffffffffffffffff160217905550565b600061261733612473565b90508082111561265c576040517f08c379a000000000000000000000000000000000000000000000000000000000815260040161265390614948565b60405180910390fd5b600860003373ffffffffffffffffffffffffffffffffffffffff1673ffffffffffffffffffffffffffffffffffffffff16815260200190815260200160002060000160009054906101000a900460ff166128235781600860003373ffffffffffffffffffffffffffffffffffffffff1673ffffffffffffffffffffffffffffffffffffffff1681526020019081526020016000206002018190555061272433601260009054906101000a900473ffffffffffffffffffffffffffffffffffffffff16846136e5565b42600860003373ffffffffffffffffffffffffffffffffffffffff1673ffffffffffffffffffffffffffffffffffffffff16815260200190815260200160002060010181905550600860003373ffffffffffffffffffffffffffffffffffffffff1673ffffffffffffffffffffffffffffffffffffffff16815260200190815260200160002060040160008154809291906127be90614e0a565b91905055506001600860003373ffffffffffffffffffffffffffffffffffffffff1673ffffffffffffffffffffffffffffffffffffffff16815260200190815260200160002060000160006101000a81548160ff021916908315150217905550612a2e565b6000600860003373ffffffffffffffffffffffffffffffffffffffff1673ffffffffffffffffffffffffffffffffffffffff16815260200190815260200160002060010154426128739190614c7b565b905060008163bcf25c806128879190614c21565b600860003373ffffffffffffffffffffffffffffffffffffffff1673ffffffffffffffffffffffffffffffffffffffff168152602001908152602001600020600201546128d49190614c21565b905080600860003373ffffffffffffffffffffffffffffffffffffffff1673ffffffffffffffffffffffffffffffffffffffff168152602001908152602001600020600301819055506000600860003373ffffffffffffffffffffffffffffffffffffffff1673ffffffffffffffffffffffffffffffffffffffff16815260200190815260200160002060020154905084816129709190614b9a565b600860003373ffffffffffffffffffffffffffffffffffffffff1673ffffffffffffffffffffffffffffffffffffffff168152602001908152602001600020600201819055506129e333601260009054906101000a900473ffffffffffffffffffffffffffffffffffffffff16876136e5565b42600860003373ffffffffffffffffffffffffffffffffffffffff1673ffffffffffffffffffffffffffffffffffffffff168152602001908152602001600020600101819055505050505b5050565b601160009054906101000a900473ffffffffffffffffffffffffffffffffffffffff1681565b60086020528060005260406000206000915090508060000160009054906101000a900460ff16908060010154908060020154908060030154908060040154905085565b60048054612aa890614da7565b80601f0160208091040260200160405190810160405280929190818152602001828054612ad490614da7565b8015612b215780601f10612af657610100808354040283529160200191612b21565b820191906000526020600020905b815481529060010190602001808311612b0457829003601f168201915b505050505081565b6000600682604051612b3b9190614465565b9081526020016040518091039020600501549050919050565b600a5481565b6000600682604051612b6c9190614465565b9081526020016040518091039020600a0160008473ffffffffffffffffffffffffffffffffffffffff1673ffffffffffffffffffffffffffffffffffffffff16815260200190815260200160002054905092915050565b6006818051602081018201805184825260208301602085012081835280955050505050506000915090508060000160009054906101000a900460ff1690806001018054612c0f90614da7565b80601f0160208091040260200160405190810160405280929190818152602001828054612c3b90614da7565b8015612c885780601f10612c5d57610100808354040283529160200191612c88565b820191906000526020600020905b815481529060010190602001808311612c6b57829003601f168201915b5050505050908060020154908060030154908060040154908060050154908060060154908060070154908060080154905089565b6000600682604051612cce9190614465565b908152602001604051809103902060090160003373ffffffffffffffffffffffffffffffffffffffff1673ffffffffffffffffffffffffffffffffffffffff16815260200190815260200160002060009054906101000a900460ff169050919050565b60076020528060005260406000206000915090508060000160009054906101000a900473ffffffffffffffffffffffffffffffffffffffff16908060010154905082565b6000600960003373ffffffffffffffffffffffffffffffffffffffff1673ffffffffffffffffffffffffffffffffffffffff16815260200190815260200160002082604051612dc49190614465565b908152602001604051809103902060009054906101000a900460ff169050919050565b6000612df43384846136e5565b6001905092915050565b6000600682604051612e109190614465565b9081526020016040518091039020600c0160003373ffffffffffffffffffffffffffffffffffffffff1673ffffffffffffffffffffffffffffffffffffffff16815260200190815260200160002060009054906101000a900460ff169050919050565b600d5481565b6014818051602081018201805184825260208301602085012081835280955050505050506000915054906101000a900460ff1681565b6000600160008473ffffffffffffffffffffffffffffffffffffffff1673ffffffffffffffffffffffffffffffffffffffff16815260200190815260200160002060008373ffffffffffffffffffffffffffffffffffffffff1673ffffffffffffffffffffffffffffffffffffffff16815260200190815260200160002054905092915050565b6009602052816000526040600020818051602081018201805184825260208301602085012081835280955050505050506000915091509054906101000a900460ff1681565b600682604051612f8b9190614465565b90815260200160405180910390206007015442118015612fcc5750600682604051612fb69190614465565b9081526020016040518091039020600801544211155b61300b576040517f08c379a0000000000000000000000000000000000000000000000000000000008152600401613002906146a8565b60405180910390fd5b600960003373ffffffffffffffffffffffffffffffffffffffff1673ffffffffffffffffffffffffffffffffffffffff168152602001908152602001600020826040516130589190614465565b908152602001604051809103902060009054906101000a900460ff166130b3576040517f08c379a00000000000000000000000000000000000000000000000000000000081526004016130aa90614728565b60405180910390fd5b6006826040516130c39190614465565b908152602001604051809103902060000160009054906101000a900460ff16613121576040517f08c379a000000000000000000000000000000000000000000000000000000000815260040161311890614928565b60405180910390fd5b60036006836040516131339190614465565b9081526020016040518091039020600401541015613186576040517f08c379a000000000000000000000000000000000000000000000000000000000815260040161317d906146c8565b60405180910390fd5b6006826040516131969190614465565b908152602001604051809103902060090160003373ffffffffffffffffffffffffffffffffffffffff1673ffffffffffffffffffffffffffffffffffffffff16815260200190815260200160002060009054906101000a900460ff1615613232576040517f08c379a0000000000000000000000000000000000000000000000000000000008152600401613229906147e8565b60405180910390fd5b600081118015613263575060068260405161324d9190614465565b9081526020016040518091039020600401548111155b6132a2576040517f08c379a000000000000000000000000000000000000000000000000000000000815260040161329990614708565b60405180910390fd5b60016014836040516132b49190614465565b908152602001604051809103902060006101000a81548160ff021916908360028111156132e4576132e3614f1b565b5b021790555060016006836040516132fb9190614465565b908152602001604051809103902060090160003373ffffffffffffffffffffffffffffffffffffffff1673ffffffffffffffffffffffffffffffffffffffff16815260200190815260200160002060006101000a81548160ff021916908315150217905550806006836040516133719190614465565b9081526020016040518091039020600a0160003373ffffffffffffffffffffffffffffffffffffffff1673ffffffffffffffffffffffffffffffffffffffff16815260200190815260200160002081905550336006836040516133d49190614465565b9081526020016040518091039020600b0160006006856040516133f79190614465565b908152602001604051809103902060050154815260200190815260200160002060006101000a81548173ffffffffffffffffffffffffffffffffffffffff021916908373ffffffffffffffffffffffffffffffffffffffff1602179055506006826040516134659190614465565b9081526020016040518091039020600501600081548092919061348790614e0a565b9190505550600760003373ffffffffffffffffffffffffffffffffffffffff1673ffffffffffffffffffffffffffffffffffffffff1681526020019081526020016000206003018190806001815401808255809150506001900390600052602060002001600090919091909150555050565b600560009054906101000a900473ffffffffffffffffffffffffffffffffffffffff1673ffffffffffffffffffffffffffffffffffffffff163373ffffffffffffffffffffffffffffffffffffffff1614613589576040517f08c379a0000000000000000000000000000000000000000000000000000000008152600401613580906148e8565b60405180910390fd5b600073ffffffffffffffffffffffffffffffffffffffff168173ffffffffffffffffffffffffffffffffffffffff1614156135f9576040517f08c379a00000000000000000000000000000000000000000000000000000000081526004016135f090614748565b60405180910390fd5b8073ffffffffffffffffffffffffffffffffffffffff16600560009054906101000a900473ffffffffffffffffffffffffffffffffffffffff1673ffffffffffffffffffffffffffffffffffffffff167f70aea8d848e8a90fb7661b227dc522eb6395c3dac71b63cb59edd5c9899b236460405160405180910390a380600560006101000a81548173ffffffffffffffffffffffffffffffffffffffff021916908373ffffffffffffffffffffffffffffffffffffffff16021790555050565b60008082846136c89190614b9a565b9050838110156136db576136da614e8e565b5b8091505092915050565b600073ffffffffffffffffffffffffffffffffffffffff168373ffffffffffffffffffffffffffffffffffffffff161415613755576040517f08c379a000000000000000000000000000000000000000000000000000000000815260040161374c906148c8565b60405180910390fd5b600073ffffffffffffffffffffffffffffffffffffffff168273ffffffffffffffffffffffffffffffffffffffff1614156137c5576040517f08c379a00000000000000000000000000000000000000000000000000000000081526004016137bc906146e8565b60405180910390fd5b60008060008573ffffffffffffffffffffffffffffffffffffffff1673ffffffffffffffffffffffffffffffffffffffff1681526020019081526020016000205490508181101561384b576040517f08c379a0000000000000000000000000000000000000000000000000000000008152600401613842906147a8565b60405180910390fd5b816000808673ffffffffffffffffffffffffffffffffffffffff1673ffffffffffffffffffffffffffffffffffffffff16815260200190815260200160002060008282546138999190614c7b565b92505081905550816000808573ffffffffffffffffffffffffffffffffffffffff1673ffffffffffffffffffffffffffffffffffffffff16815260200190815260200160002060008282546138ee9190614b9a565b925050819055508273ffffffffffffffffffffffffffffffffffffffff168473ffffffffffffffffffffffffffffffffffffffff167fddf252ad1be2c89b69c2b068fc378daa952ba7f163c4a11628f55a4df523b3ef8460405161395291906149c8565b60405180910390a350505050565b6000818361396e9190614bf0565b905092915050565b82805461398290614da7565b90600052602060002090601f0160209004810192826139a457600085556139eb565b82601f106139bd57805160ff19168380011785556139eb565b828001600101855582156139eb579182015b828111156139ea5782518255916020019190600101906139cf565b5b5090506139f891906139fc565b5090565b5b80821115613a155760008160009055506001016139fd565b5090565b6000613a2c613a2784614a5a565b614a35565b90508083825260208201905082856020860282011115613a4f57613a4e614fdc565b5b60005b85811015613a7f5781613a658882613b3c565b845260208401935060208301925050600181019050613a52565b5050509392505050565b6000613a9c613a9784614a86565b614a35565b905082815260208101848484011115613ab857613ab7614fe1565b5b613ac3848285614d3b565b509392505050565b600081359050613ada81615520565b92915050565b600082601f830112613af557613af4614fd7565b5b8135613b05848260208601613a19565b91505092915050565b600082601f830112613b2357613b22614fd7565b5b8135613b33848260208601613a89565b91505092915050565b600081359050613b4b81615537565b92915050565b600060208284031215613b6757613b66614feb565b5b6000613b7584828501613acb565b91505092915050565b60008060408385031215613b9557613b94614feb565b5b6000613ba385828601613acb565b9250506020613bb485828601613acb565b9150509250929050565b600080600060608486031215613bd757613bd6614feb565b5b6000613be586828701613acb565b9350506020613bf686828701613acb565b9250506040613c0786828701613b3c565b9150509250925092565b60008060408385031215613c2857613c27614feb565b5b6000613c3685828601613acb565b925050602083013567ffffffffffffffff811115613c5757613c56614fe6565b5b613c6385828601613b0e565b9150509250929050565b60008060408385031215613c8457613c83614feb565b5b6000613c9285828601613acb565b9250506020613ca385828601613b3c565b9150509250929050565b600060208284031215613cc357613cc2614feb565b5b600082013567ffffffffffffffff811115613ce157613ce0614fe6565b5b613ced84828501613b0e565b91505092915050565b60008060408385031215613d0d57613d0c614feb565b5b600083013567ffffffffffffffff811115613d2b57613d2a614fe6565b5b613d3785828601613b0e565b925050602083013567ffffffffffffffff811115613d5857613d57614fe6565b5b613d6485828601613ae0565b9150509250929050565b60008060408385031215613d8557613d84614feb565b5b600083013567ffffffffffffffff811115613da357613da2614fe6565b5b613daf85828601613b0e565b9250506020613dc085828601613b3c565b9150509250929050565b600060208284031215613de057613ddf614feb565b5b6000613dee84828501613b3c565b91505092915050565b60008060408385031215613e0e57613e0d614feb565b5b6000613e1c85828601613b3c565b925050602083013567ffffffffffffffff811115613e3d57613e3c614fe6565b5b613e4985828601613b0e565b9150509250929050565b6000613e5f8383613ea6565b60208301905092915050565b6000613e778383614013565b905092915050565b6000613e8b8383614421565b60208301905092915050565b613ea081614cc1565b82525050565b613eaf81614caf565b82525050565b613ebe81614caf565b82525050565b6000613ecf82614ae7565b613ed98185614b3a565b9350613ee483614ab7565b8060005b83811015613f15578151613efc8882613e53565b9750613f0783614b13565b925050600181019050613ee8565b5085935050505092915050565b6000613f2d82614af2565b613f378185614b4b565b935083602082028501613f4985614ac7565b8060005b85811015613f855784840389528151613f668582613e6b565b9450613f7183614b20565b925060208a01995050600181019050613f4d565b50829750879550505050505092915050565b6000613fa282614afd565b613fac8185614b5c565b9350613fb783614ad7565b8060005b83811015613fe8578151613fcf8882613e7f565b9750613fda83614b2d565b925050600181019050613fbb565b5085935050505092915050565b613ffe81614cd3565b82525050565b61400d81614d29565b82525050565b600061401e82614b08565b6140288185614b6d565b9350614038818560208601614d4a565b61404181614ff0565b840191505092915050565b600061405782614b08565b6140618185614b7e565b9350614071818560208601614d4a565b61407a81614ff0565b840191505092915050565b600061409082614b08565b61409a8185614b8f565b93506140aa818560208601614d4a565b80840191505092915050565b60006140c3601e83614b7e565b91506140ce82615001565b602082019050919050565b60006140e6600f83614b7e565b91506140f18261502a565b602082019050919050565b6000614109602383614b7e565b915061411482615053565b604082019050919050565b600061412c600e83614b7e565b9150614137826150a2565b602082019050919050565b600061414f600e83614b7e565b915061415a826150cb565b602082019050919050565b6000614172602683614b7e565b915061417d826150f4565b604082019050919050565b6000614195602283614b7e565b91506141a082615143565b604082019050919050565b60006141b8600b83614b7e565b91506141c382615192565b602082019050919050565b60006141db602683614b7e565b91506141e6826151bb565b604082019050919050565b60006141fe601283614b7e565b91506142098261520a565b602082019050919050565b6000614221600d83614b7e565b915061422c82615233565b602082019050919050565b6000614244601a83614b7e565b915061424f8261525c565b602082019050919050565b6000614267601383614b7e565b915061427282615285565b602082019050919050565b600061428a602483614b7e565b9150614295826152ae565b604082019050919050565b60006142ad601283614b7e565b91506142b8826152fd565b602082019050919050565b60006142d0600c83614b7e565b91506142db82615326565b602082019050919050565b60006142f3601283614b7e565b91506142fe8261534f565b602082019050919050565b6000614316602583614b7e565b915061432182615378565b604082019050919050565b6000614339601e83614b7e565b9150614344826153c7565b602082019050919050565b600061435c602483614b7e565b9150614367826153f0565b604082019050919050565b600061437f601383614b7e565b915061438a8261543f565b602082019050919050565b60006143a2601183614b7e565b91506143ad82615468565b602082019050919050565b60006143c5601183614b7e565b91506143d082615491565b602082019050919050565b60006143e8601283614b7e565b91506143f3826154ba565b602082019050919050565b600061440b601783614b7e565b9150614416826154e3565b602082019050919050565b61442a81614d12565b82525050565b61443981614d12565b82525050565b61445061444b82614d12565b614e53565b82525050565b61445f81614d1c565b82525050565b60006144718284614085565b915081905092915050565b60006144888285614085565b9150614494828461443f565b6020820191508190509392505050565b60006020820190506144b96000830184613eb5565b92915050565b60006020820190506144d46000830184613e97565b92915050565b60006040820190506144ef6000830185613eb5565b6144fc6020830184614430565b9392505050565b6000602082019050818103600083015261451d8184613ec4565b905092915050565b6000602082019050818103600083015261453f8184613f22565b905092915050565b600060208201905081810360008301526145618184613f97565b905092915050565b600060208201905061457e6000830184613ff5565b92915050565b60006101208201905061459a600083018c613ff5565b81810360208301526145ac818b61404c565b90506145bb604083018a614430565b6145c86060830189614430565b6145d56080830188614430565b6145e260a0830187614430565b6145ef60c0830186614430565b6145fc60e0830185614430565b61460a610100830184614430565b9a9950505050505050505050565b600060a08201905061462d6000830188613ff5565b61463a6020830187614430565b6146476040830186614430565b6146546060830185614430565b6146616080830184614430565b9695505050505050565b60006020820190506146806000830184614004565b92915050565b600060208201905081810360008301526146a0818461404c565b905092915050565b600060208201905081810360008301526146c1816140b6565b9050919050565b600060208201905081810360008301526146e1816140d9565b9050919050565b60006020820190508181036000830152614701816140fc565b9050919050565b600060208201905081810360008301526147218161411f565b9050919050565b6000602082019050818103600083015261474181614142565b9050919050565b6000602082019050818103600083015261476181614165565b9050919050565b6000602082019050818103600083015261478181614188565b9050919050565b600060208201905081810360008301526147a1816141ab565b9050919050565b600060208201905081810360008301526147c1816141ce565b9050919050565b600060208201905081810360008301526147e1816141f1565b9050919050565b6000602082019050818103600083015261480181614214565b9050919050565b6000602082019050818103600083015261482181614237565b9050919050565b600060208201905081810360008301526148418161425a565b9050919050565b600060208201905081810360008301526148618161427d565b9050919050565b60006020820190508181036000830152614881816142a0565b9050919050565b600060208201905081810360008301526148a1816142c3565b9050919050565b600060208201905081810360008301526148c1816142e6565b9050919050565b600060208201905081810360008301526148e181614309565b9050919050565b600060208201905081810360008301526149018161432c565b9050919050565b600060208201905081810360008301526149218161434f565b9050919050565b6000602082019050818103600083015261494181614372565b9050919050565b6000602082019050818103600083015261496181614395565b9050919050565b60006020820190508181036000830152614981816143b8565b9050919050565b600060208201905081810360008301526149a1816143db565b9050919050565b600060208201905081810360008301526149c1816143fe565b9050919050565b60006020820190506149dd6000830184614430565b92915050565b60006060820190506149f86000830186614430565b614a056020830185614430565b614a126040830184614430565b949350505050565b6000602082019050614a2f6000830184614456565b92915050565b6000614a3f614a50565b9050614a4b8282614dd9565b919050565b6000604051905090565b600067ffffffffffffffff821115614a7557614a74614fa8565b5b602082029050602081019050919050565b600067ffffffffffffffff821115614aa157614aa0614fa8565b5b614aaa82614ff0565b9050602081019050919050565b6000819050602082019050919050565b6000819050602082019050919050565b6000819050602082019050919050565b600081519050919050565b600081519050919050565b600081519050919050565b600081519050919050565b6000602082019050919050565b6000602082019050919050565b6000602082019050919050565b600082825260208201905092915050565b600082825260208201905092915050565b600082825260208201905092915050565b600082825260208201905092915050565b600082825260208201905092915050565b600081905092915050565b6000614ba582614d12565b9150614bb083614d12565b9250827fffffffffffffffffffffffffffffffffffffffffffffffffffffffffffffffff03821115614be557614be4614ebd565b5b828201905092915050565b6000614bfb82614d12565b9150614c0683614d12565b925082614c1657614c15614eec565b5b828204905092915050565b6000614c2c82614d12565b9150614c3783614d12565b9250817fffffffffffffffffffffffffffffffffffffffffffffffffffffffffffffffff0483118215151615614c7057614c6f614ebd565b5b828202905092915050565b6000614c8682614d12565b9150614c9183614d12565b925082821015614ca457614ca3614ebd565b5b828203905092915050565b6000614cba82614cf2565b9050919050565b6000614ccc82614cf2565b9050919050565b60008115159050919050565b6000819050614ced8261550c565b919050565b600073ffffffffffffffffffffffffffffffffffffffff82169050919050565b6000819050919050565b600060ff82169050919050565b6000614d3482614cdf565b9050919050565b82818337600083830152505050565b60005b83811015614d68578082015181840152602081019050614d4d565b83811115614d77576000848401525b50505050565b6000614d8882614d12565b91506000821415614d9c57614d9b614ebd565b5b600182039050919050565b60006002820490506001821680614dbf57607f821691505b60208210811415614dd357614dd2614f4a565b5b50919050565b614de282614ff0565b810181811067ffffffffffffffff82111715614e0157614e00614fa8565b5b80604052505050565b6000614e1582614d12565b91507fffffffffffffffffffffffffffffffffffffffffffffffffffffffffffffffff821415614e4857614e47614ebd565b5b600182019050919050565b6000819050919050565b6000614e6882614d12565b9150614e7383614d12565b925082614e8357614e82614eec565b5b828206905092915050565b7f4e487b7100000000000000000000000000000000000000000000000000000000600052600160045260246000fd5b7f4e487b7100000000000000000000000000000000000000000000000000000000600052601160045260246000fd5b7f4e487b7100000000000000000000000000000000000000000000000000000000600052601260045260246000fd5b7f4e487b7100000000000000000000000000000000000000000000000000000000600052602160045260246000fd5b7f4e487b7100000000000000000000000000000000000000000000000000000000600052602260045260246000fd5b7f4e487b7100000000000000000000000000000000000000000000000000000000600052603260045260246000fd5b7f4e487b7100000000000000000000000000000000000000000000000000000000600052604160045260246000fd5b600080fd5b600080fd5b600080fd5b600080fd5b600080fd5b6000601f19601f8301169050919050565b7f7374696c6c205265676973746572696e67206f7220766f7465206f7665720000600082015250565b7f4174206c65617420332075736572730000000000000000000000000000000000600082015250565b7f45524332303a207472616e7366657220746f20746865207a65726f206164647260008201527f6573730000000000000000000000000000000000000000000000000000000000602082015250565b7f496e636f727265637420766f7465000000000000000000000000000000000000600082015250565b7f4e6f742072656769737465726564000000000000000000000000000000000000600082015250565b7f4f776e61626c653a206e6577206f776e657220697320746865207a65726f206160008201527f6464726573730000000000000000000000000000000000000000000000000000602082015250565b7f45524332303a20617070726f766520746f20746865207a65726f20616464726560008201527f7373000000000000000000000000000000000000000000000000000000000000602082015250565b7f49434f206973206f766572000000000000000000000000000000000000000000600082015250565b7f45524332303a207472616e7366657220616d6f756e742065786365656473206260008201527f616c616e63650000000000000000000000000000000000000000000000000000602082015250565b7f416c726561647920726567697374657265640000000000000000000000000000600082015250565b7f416c726561647920766f74656400000000000000000000000000000000000000600082015250565b7f5374696c6c2072656769737472696e67206f7220566f74696e67000000000000600082015250565b7f49434f3a206e6f7420656e6f7567682065746800000000000000000000000000600082015250565b7f49434f3a2062757920746f6b656e207769746820636f6e74726163742061646460008201527f7265737300000000000000000000000000000000000000000000000000000000602082015250565b7f416c726561647920776974686472617765640000000000000000000000000000600082015250565b7f68617665277420766f7465640000000000000000000000000000000000000000600082015250565b7f49434f3a206368616e676520616d6f756e740000000000000000000000000000600082015250565b7f45524332303a207472616e736665722066726f6d20746865207a65726f20616460008201527f6472657373000000000000000000000000000000000000000000000000000000602082015250565b7f4f776e65643a2063616c6c6572206973206e6f7420746865206f776e65720000600082015250565b7f45524332303a20617070726f76652066726f6d20746865207a65726f2061646460008201527f7265737300000000000000000000000000000000000000000000000000000000602082015250565b7f506f6f6c206e6f74207265676973746572656400000000000000000000000000600082015250565b7f4e6f7420656e6f75676820746f6b656e73000000000000000000000000000000600082015250565b7f4c65737320746f6b656e207374616b6564000000000000000000000000000000600082015250565b7f526567697374726174696f6e20656e6465640000000000000000000000000000600082015250565b7f506f6f6c20616c72656164792072656769737465726564000000000000000000600082015250565b6003811061551d5761551c614f1b565b5b50565b61552981614caf565b811461553457600080fd5b50565b61554081614d12565b811461554b57600080fd5b5056fea2646970667358221220905dab19ca6bfdb855bbf39f3010c12ddb57118d6befff8bfc0dca0e19e7031f64736f6c63430008070033",
  "immutableReferences": {},
  "source": "// SPDX-License-Identifier: MIT\npragma solidity 0.8.7;\n\nimport \"./ERC20/ERC20.sol\";\nimport \"./ERC20/Owned.sol\";\n\n/*=================================\n * Written by Samuel Gwlanold Ongala\n */\n\ncontract WaitAndWin is ERC20(\"Wait And Win\", \"WAW\"), Owned {\n    struct VPool {\n        bool registered;\n        string ID;\n        uint256 price;\n        uint256 prize;\n        uint256 numberOfUsers;\n        uint256 numberOfVoters;\n        uint256 startRegistrationTime;\n        uint256 endRegistrationTime;\n        uint256 endTime;\n        mapping(address => bool) userVoted;\n        mapping(address => uint256) userVote;\n        mapping(uint256 => address) voterAddresses;\n        mapping(address => bool) userWithdrawed;\n    }\n\n    struct User {\n        address userAddress;\n        uint256 numberOfPools;\n        string[] userPools;\n        uint256[] userVotes;\n    }\n\n    struct Stake {\n        bool isStaking;\n        uint256 startStakingTime;\n        uint256 amountStaked;\n        uint256 rewards;\n        uint256 numberOfStakers;\n    }\n\n    mapping(string => VPool) public vPools;\n    mapping(address => User) public users;\n    mapping(address => Stake) public stakers;\n\n    mapping(address => mapping(string => bool)) public userRegistered;\n\n    uint256 public numberOfRegisteredPools;\n\n    //** ERC20 token */\n    uint256 private initialSupply = 500000 ether; // 1 eth = 10^(18) => decimals = 18\n    uint256 public rateOfChange = 1000;\n    uint256 public raisedAmount;\n    uint256 private minInvestment;\n    uint256 private maxInvestment;\n    address[] listOfInvestors;\n    address payable public depositETHAddress;\n    address payable private ownerAddress;\n\n    mapping(address => bool) public investors;\n\n    event TokenPayed(address _address);\n\n    enum State {\n        Registering,\n        Voting,\n        End\n    }\n\n    mapping(string => State) public poolState;\n\n    //==== constructor and functions ====\n    constructor(address payable _depositETHAddress) {\n        numberOfRegisteredPools = 0;\n\n        //***token = new ERC20(\"Rare Platform Token\", \"RPT\");\n\n        depositETHAddress = _depositETHAddress;\n        mint(msg.sender, initialSupply);\n\n        minInvestment = 0.01 ether;\n        maxInvestment = 10 ether;\n\n        ownerAddress = payable(getOwnerAddress());\n    }\n\n    function RegisterOrJoinPool(string memory _poolID, uint256 _token) public {\n        require(!vPools[_poolID].registered, \"Pool already registered\");\n\n        // user balance\n        uint256 userBalance = balanceOf(msg.sender);\n        require(_token <= userBalance, \"Not enough tokens\");\n\n        // update pool state\n        vPools[_poolID].startRegistrationTime = block.timestamp;\n        vPools[_poolID].endRegistrationTime = block.timestamp + 2 minutes;\n        vPools[_poolID].endTime = block.timestamp + 5 minutes;\n        vPools[_poolID].registered = true;\n        vPools[_poolID].ID = _poolID;\n        vPools[_poolID].price = _token;\n        vPools[_poolID].numberOfUsers++;\n        vPools[_poolID].prize += _token;\n\n        numberOfRegisteredPools++;\n\n        // set the pool status to registering\n        poolState[_poolID] = State.Registering;\n\n        // rgister the new user\n        users[msg.sender].userAddress = msg.sender;\n        users[msg.sender].userPools.push(_poolID);\n        users[msg.sender].numberOfPools++;\n        userRegistered[msg.sender][_poolID] = true;\n\n        // transfert tokens paid buy user to the contract address\n        transfer(ownerAddress, _token);\n    }\n\n    function joinPool(string memory _poolID, uint256 _token) public {\n        require(!userRegistered[msg.sender][_poolID], \"Already registered\");\n        require(vPools[_poolID].registered, \"Pool not registered\");\n        require(\n            block.timestamp <= vPools[_poolID].endRegistrationTime,\n            \"Registration ended\"\n        );\n\n        // user balance\n        uint256 userBalance = balanceOf(msg.sender);\n        require(_token <= userBalance, \"Not enough tokens\");\n\n        // transfert tokens paid buy user to the owner address\n        transfer(ownerAddress, _token);\n\n        // set the pool status to registering\n        poolState[_poolID] = State.Registering;\n\n        // adding the new user to the pool\n        vPools[_poolID].numberOfUsers++;\n        vPools[_poolID].prize += _token;\n\n        // rgister the new user\n        users[msg.sender].userAddress = msg.sender;\n        users[msg.sender].userPools.push(_poolID);\n        users[msg.sender].numberOfPools++;\n        userRegistered[msg.sender][_poolID] = true;\n    }\n\n    function voteForPool(string memory _poolID, uint256 _vote) public {\n        require(\n            block.timestamp > vPools[_poolID].endRegistrationTime &&\n                block.timestamp <= vPools[_poolID].endTime,\n            \"still Registering or vote over\"\n        );\n        require(userRegistered[msg.sender][_poolID], \"Not registered\");\n        require(vPools[_poolID].registered, \"Pool not registered\");\n\n        require(vPools[_poolID].numberOfUsers >= 3, \"At leat 3 users\");\n        require(!vPools[_poolID].userVoted[msg.sender], \"Already voted\");\n        require(\n            _vote > 0 && _vote <= vPools[_poolID].numberOfUsers,\n            \"Incorrect vote\"\n        );\n\n        // set the pool status to Voting\n        poolState[_poolID] = State.Voting;\n\n        vPools[_poolID].userVoted[msg.sender] = true;\n        vPools[_poolID].userVote[msg.sender] = _vote;\n        vPools[_poolID].voterAddresses[vPools[_poolID].numberOfVoters] = msg\n            .sender;\n        vPools[_poolID].numberOfVoters++;\n\n        users[msg.sender].userVotes.push(_vote);\n    }\n\n    function rankDistribution(\n        string memory _poolID,\n        uint256[] memory _initialTab\n    ) public pure returns (uint256[] memory) {\n        // the pool status must be 'END'\n        /* require(\n            block.timestamp > vPools[_poolID].endTime,\n            \"Still registring or Voting\"\n        ); */\n\n        uint256 p = _initialTab.length;\n        uint256 k = _initialTab.length;\n\n        // generate random numbers\n        for (uint256 i = 0; i < k; i++) {\n            uint256 randNum = (uint256(\n                keccak256(abi.encodePacked(_poolID, _initialTab[i]))\n            ) % p) + 1;\n\n            uint256 tmp = _initialTab[randNum - 1];\n            _initialTab[randNum - 1] = _initialTab[p - 1];\n            _initialTab[p - 1] = tmp;\n            p = p - 1;\n        }\n\n        return _initialTab;\n    }\n\n    function winningVotes(string memory _poolID)\n        internal\n        view\n        returns (uint256[] memory)\n    {\n        // store users vote to a memory array and initialize the array Tab with zeros\n        uint256[] memory userVotes;\n        uint256[] memory Tab;\n        for (uint256 i = 0; i < vPools[_poolID].numberOfVoters; i++) {\n            Tab[i] = 0;\n            userVotes[i] = vPools[_poolID].userVote[msg.sender];\n        }\n\n        for (uint256 i = 0; i < Tab.length; i++) {\n            Tab[userVotes[i]]++;\n        }\n\n        // get the array of winners (two numbers may have same number of votes)\n        uint256 votePosition = 0;\n        uint256[] memory _winningVotes;\n\n        for (uint256 i = 1; i < Tab.length; i++) {\n            if (Tab[i] >= votePosition) {\n                votePosition = i;\n            }\n        }\n\n        uint256 index = 0;\n        for (uint256 i = 1; i < Tab.length; i++) {\n            if (Tab[i] == votePosition) {\n                _winningVotes[index] = i;\n                index++;\n            }\n        }\n\n        return _winningVotes;\n    }\n\n    function withdrawPoolPrize(string memory _poolID, uint256 numberOfWinners)\n        public\n        payable\n    {\n        // the pool status must be 'END'\n        require(\n            block.timestamp > vPools[_poolID].endTime,\n            \"Still registring or Voting\"\n        );\n\n        // require that the user has voted\n        require(vPools[_poolID].userVoted[msg.sender], \"have't voted\");\n        require(\n            !vPools[_poolID].userWithdrawed[msg.sender],\n            \"Already withdrawed\"\n        );\n\n        uint256 prize = vPools[_poolID].prize / numberOfWinners;\n\n        vPools[_poolID].userWithdrawed[msg.sender] = true;\n\n        // transfer tokens to the buyer\n        _transfer(ownerAddress, msg.sender, prize);\n    }\n\n    function ElementOf(uint256 num, uint256[] memory Tab)\n        internal\n        pure\n        returns (bool)\n    {\n        bool isElement;\n\n        for (uint256 i = 0; i < Tab.length; i++) {\n            if (num == Tab[i]) {\n                isElement = true;\n            }\n        }\n\n        return isElement;\n    }\n\n    function buyToken() public payable {\n        // prevent the contract address to buy tokens\n        require(\n            msg.sender != ownerAddress,\n            \"ICO: buy token with contract address\"\n        );\n\n        // require enough eth to buy tokens\n        require(\n            msg.value != 0 && msg.value < msg.sender.balance,\n            \"ICO: not enough eth\"\n        );\n\n        // prevent buying tokens after all tokens have been sold out.\n        require(raisedAmount + msg.value <= initialSupply, \"ICO is over\");\n\n        // the amount to invest must be in range [minInvestment, maxInvestment]\n        require(\n            msg.value >= minInvestment && msg.value <= maxInvestment,\n            \"ICO: change amount\"\n        );\n\n        // update state variables before calling external function (security).\n        // Register the user only if buying the first time\n        raisedAmount = add(raisedAmount, msg.value);\n\n        if (!investors[msg.sender]) {\n            listOfInvestors.push(msg.sender);\n            investors[msg.sender] = true;\n        }\n\n        // amount of tokens to buy\n        uint256 tokens = msg.value * rateOfChange;\n\n        // send eth to the deposit account of the contract owner,\n        // not to the contract address\n        depositETHAddress.transfer(msg.value);\n\n        // transfer tokens to the buyer\n        _transfer(ownerAddress, msg.sender, tokens);\n    }\n\n    function stakeTokens(uint256 _amount) public payable {\n        // get the user balance and require it to be greater than\n        // the amount of tokens to stake\n        uint256 balance = balanceOf(msg.sender);\n        require(_amount <= balance, \"Not enough tokens\");\n\n        if (!stakers[msg.sender].isStaking) {\n            stakers[msg.sender].amountStaked = _amount;\n\n            // transfer tokens to the contract\n            _transfer(msg.sender, ownerAddress, _amount);\n\n            // store the staking starting time\n            stakers[msg.sender].startStakingTime = block.timestamp;\n\n            // update the number of stakers\n            stakers[msg.sender].numberOfStakers++;\n\n            // update the user staking status\n            stakers[msg.sender].isStaking = true;\n        } else {\n            //== Store the previous reward ==\n            // elaspsed time\n            uint256 timeDifference = block.timestamp -\n                stakers[msg.sender].startStakingTime;\n\n            // calculate the previous rewards\n            uint256 rewards = (stakers[msg.sender].amountStaked) *\n                ((0.00000000317 * 1 ether) * timeDifference);\n            stakers[msg.sender].rewards = rewards;\n\n            // get the amount of tokens already staked\n            uint256 alreadyStaked = stakers[msg.sender].amountStaked;\n\n            // add the new amount of tokens to stake to the amount\n            // of tokens already staked\n            stakers[msg.sender].amountStaked = alreadyStaked + _amount;\n\n            // transfer tokens to the contract\n            _transfer(msg.sender, ownerAddress, _amount);\n\n            // store the staking starting time\n            stakers[msg.sender].startStakingTime = block.timestamp;\n        }\n    }\n\n    function unstakeTokens(uint256 _amount) public payable {\n        // get the amount of token staked by the user and reqire it\n        // to be greater than or equal to the amount of tokens to unstake\n        // (without the rewards)\n        uint256 stakedTokens = stakers[msg.sender].amountStaked;\n        require(_amount <= stakedTokens, \"Less token staked\");\n\n        // elapsed time\n        uint256 timeDifference = block.timestamp -\n            stakers[msg.sender].startStakingTime;\n\n        // calculate the rewards related to the amount of\n        // tokens to unstake\n        uint256 rewards = _amount *\n            ((0.00000000317 * 1 ether) * timeDifference);\n        rewards = div(rewards, 1 ether);\n\n        // add the rewards to the amount to unstake\n        uint256 amountToUnstake = _amount + rewards;\n\n        // Update the amount of staked tokens\n        stakers[msg.sender].amountStaked = stakedTokens - _amount;\n\n        // re-initialize the rewards\n        stakers[msg.sender].rewards = 0;\n\n        // if the user unstakes all token update the number of stakers\n        if (_amount == stakedTokens) {\n            stakers[msg.sender].numberOfStakers--;\n            stakers[msg.sender].startStakingTime = 0;\n        }\n\n        // Transfer tokens to the user\n        _transfer(ownerAddress, msg.sender, amountToUnstake);\n    }\n\n    receive() external payable {\n        emit TokenPayed(msg.sender);\n    }\n\n    fallback() external payable {\n        buyToken();\n    }\n\n    function getNumberOfVoters(string memory _poolID)\n        public\n        view\n        returns (uint256)\n    {\n        return vPools[_poolID].numberOfVoters;\n    }\n\n    function getUserVote(address _address, string memory _poolID)\n        public\n        view\n        returns (uint256)\n    {\n        return vPools[_poolID].userVote[_address];\n    }\n\n    function getVoterAddress(uint256 _index, string memory _poolID)\n        public\n        view\n        returns (address)\n    {\n        return vPools[_poolID].voterAddresses[_index];\n    }\n\n    function getListOfUsers() public view returns (address[] memory) {\n        return listOfInvestors;\n    }\n\n    function getOwnerAddress() public view returns (address) {\n        return owner;\n    }\n\n    function getUserPools() public view returns (string[] memory) {\n        return users[msg.sender].userPools;\n    }\n\n    function getPoolState(string memory _poolID) public view returns (State) {\n        if (block.timestamp <= vPools[_poolID].endRegistrationTime) {\n            return State.Registering;\n        } else if (block.timestamp <= vPools[_poolID].endTime) {\n            return State.Voting;\n        } else {\n            return State.End;\n        }\n    }\n\n    function getPoolTimes(string memory _poolID)\n        public\n        view\n        returns (\n            uint256,\n            uint256,\n            uint256\n        )\n    {\n        return (\n            vPools[_poolID].startRegistrationTime,\n            vPools[_poolID].endRegistrationTime,\n            vPools[_poolID].endTime\n        );\n    }\n\n    function isUserRegistered(string memory _poolID)\n        public\n        view\n        returns (bool)\n    {\n        return userRegistered[msg.sender][_poolID];\n    }\n\n    function hasUserVoted(string memory _poolID) public view returns (bool) {\n        return vPools[_poolID].userVoted[msg.sender];\n    }\n\n    function getUserVotes() public view returns (uint256[] memory) {\n        return users[msg.sender].userVotes;\n    }\n\n    function hasUserWithdrawed(string memory _poolID)\n        public\n        view\n        returns (bool)\n    {\n        return vPools[_poolID].userWithdrawed[msg.sender];\n    }\n}\n",
  "sourcePath": "/Users/samuel/Documents/Projet/Pojet_Dev/WaitAndWin/contracts/WaitAndWin.sol",
  "compiler": {
    "name": "solc",
    "version": "0.8.7+commit.e28d00a7.Emscripten.clang"
  },
  "schemaVersion": "3.3.4",
  "updatedAt": "2021-09-22T15:16:56.195Z",
  "networkType": "ethereum",
  "devdoc": {
    "kind": "dev",
    "methods": {
      "totalSupply()": {
        "details": "returns the total amount of tokens in existence right now, minus any tokens that have been burned."
      }
    },
    "version": 1
  },
  "userdoc": {
    "kind": "user",
    "methods": {},
    "version": 1
  }
}